{
    "ChainAtoChainB_Frontier" : {
        "_info" : {
            "comment" : "",
            "filledwith" : "cpp-1.3.0+commit.d203469b.Windows.msvc",
            "lllcversion" : "Error getting LLLC Version",
            "source" : "src\\DposBlockTestsFiller\\bcMultiChainTest\\ChainAtoChainBtoChainAFiller.json",
            "sourceHash" : "8b4f6787b96e9e547e2bfa19afd4f7ea557831c5a54167995ea9952fbaeffc83"
        },
        "blocks" : [
            {
                "blockHeader" : {
                    "bloom" : "0x00000000000000000000000000000000000000000000000000000000000000000000000000000000000000000000000000000000000000000000000000000000000000000000000000000000000000000000000000000000000000000000000000000000000000000000000000000000000000000000000000000000000000000000000000000000000000000000000000000000000000000000000000000000000000000000000000000000000000000000000000000000000000000000000000000000000000000000000000000000000000000000000000000000000000000000000000000000000000000000000000000000000000000000000000000000",
                    "coinbase" : "0x8888f1f195afa192cfee860698584c030f4c9db1",
                    "difficulty" : "0x020000",
                    "extraData" : "",
                    "gasLimit" : "0x2fefba",
                    "gasUsed" : "0x5208",
                    "genesisTime" : "0x00",
                    "hardforkVersion" : "0x00",
                    "hash" : "0xca35f4998735926f7ce09bd86e259ca02ea4ef0ab15dbdfdc560b0fad5e1c1b4",
                    "number" : "0x01",
                    "parentHash" : "0x408968efa704f9c2a7ba35db351ee545e3dab0a1b7856a7681d1d9149c9190a2",
                    "r" : "0xb32ccccfee3cf6df49d7b5ef228509bd72ecf4106d06b6bddfde1473f224a6cf",
                    "receiptTrie" : "0xe9244cf7503b79c03d3a099e07a80d2dbc77bb0b502d8a89d51ac0d68dd31313",
                    "runningVersion" : "0x00",
                    "s" : "0x3d58072d2db869a972c89c6ecdd5e45420f469455d6255a74fa67d708751bd24",
                    "stateRoot" : "0xcb52de543653d86ccd13ba3ddf8b052525b04231c6884a4db3188a184681d878",
                    "timestamp" : "0x5a376727",
                    "transactionsTrie" : "0x5c9151c2413d1cd25c51ffb4ac38948acc1359bf08c6b49f283660e9bcf0f516",
                    "uncleHash" : "0x1dcc4de8dec75d7aab85b567b6ccd41ad312451b948a7413f0a142fd40d49347",
                    "v" : "0x1c"
                },
                "blocknumber" : "1",
                "chainname" : "A",
                "rlp" : "0xf9027df90215a0408968efa704f9c2a7ba35db351ee545e3dab0a1b7856a7681d1d9149c9190a2a01dcc4de8dec75d7aab85b567b6ccd41ad312451b948a7413f0a142fd40d49347948888f1f195afa192cfee860698584c030f4c9db1a0cb52de543653d86ccd13ba3ddf8b052525b04231c6884a4db3188a184681d878a05c9151c2413d1cd25c51ffb4ac38948acc1359bf08c6b49f283660e9bcf0f516a0e9244cf7503b79c03d3a099e07a80d2dbc77bb0b502d8a89d51ac0d68dd31313b90100000000000000000000000000000000000000000000000000000000000000000000000000000000000000000000000000000000000000000000000000000000000000000000000000000000000000000000000000000000000000000000000000000000000000000000000000000000000000000000000000000000000000000000000000000000000000000000000000000000000000000000000000000000000000000000000000000000000000000000000000000000000000000000000000000000000000000000000000000000000000000000000000000000000000000000000000000000000000000000000000000000000000000000000000000000008302000001832fefba825208845a376727808080801ca0b32ccccfee3cf6df49d7b5ef228509bd72ecf4106d06b6bddfde1473f224a6cfa03d58072d2db869a972c89c6ecdd5e45420f469455d6255a74fa67d708751bd24f862f86080018304cb2f94095e7baea6a6c7c4c2dfeb977efac326af552d870a801ba077c7cd36820c71821c1aed59de46e70e701c4a8dd89c9ba508ab722210f60da8a03f29825d40c7c3f7bff3ca69267e0f3fb74b2d18b8c2c4e3c135b5d3b06e288dc0",
                "transactions" : [
                    {
                        "data" : "",
                        "gasLimit" : "0x04cb2f",
                        "gasPrice" : "0x01",
                        "nonce" : "0x00",
                        "r" : "0x77c7cd36820c71821c1aed59de46e70e701c4a8dd89c9ba508ab722210f60da8",
                        "s" : "0x3f29825d40c7c3f7bff3ca69267e0f3fb74b2d18b8c2c4e3c135b5d3b06e288d",
                        "to" : "0x095e7baea6a6c7c4c2dfeb977efac326af552d87",
                        "v" : "0x1b",
                        "value" : "0x0a"
                    }
                ],
                "uncleHeaders" : [
                ]
            },
            {
                "blockHeader" : {
                    "bloom" : "0x00000000000000000000000000000000000000000000000000000000000000000000000000000000000000000000000000000000000000000000000000000000000000000000000000000000000000000000000000000000000000000000000000000000000000000000000000000000000000000000000000000000000000000000000000000000000000000000000000000000000000000000000000000000000000000000000000000000000000000000000000000000000000000000000000000000000000000000000000000000000000000000000000000000000000000000000000000000000000000000000000000000000000000000000000000000",
                    "coinbase" : "0x8888f1f195afa192cfee860698584c030f4c9db1",
                    "difficulty" : "0x020000",
                    "extraData" : "",
                    "gasLimit" : "0x2fefba",
                    "gasUsed" : "0x5208",
                    "genesisTime" : "0x00",
                    "hardforkVersion" : "0x00",
                    "hash" : "0x944fd103d8d8291ac55db090b75f399b4b3a5dff366dfc305d8d9b1e6f537ea5",
                    "number" : "0x02",
                    "parentHash" : "0xca35f4998735926f7ce09bd86e259ca02ea4ef0ab15dbdfdc560b0fad5e1c1b4",
                    "r" : "0xcf0121725948edce3aabf50c6bf7ee299115f28657a3152f2fe84f0b82d949b3",
                    "receiptTrie" : "0x5ea1a8b24652fed0ecab4738edd9211891eb8c4353c345973b78a02cc0f32f6b",
                    "runningVersion" : "0x00",
                    "s" : "0x4c596c0f097062439ec20369792b85d0b9e1b99b26edc31184dd77a88eadcf98",
                    "stateRoot" : "0xe7e4760f75476ec7f51869d8bdce5c693058fd5a95c77ea9c0bf7ced1e50d70e",
                    "timestamp" : "0x5a376728",
                    "transactionsTrie" : "0xc673e076264c4669a5c2e479f1757b78e42511efe33b5fd2c0a23b929c7f87f5",
                    "uncleHash" : "0x1dcc4de8dec75d7aab85b567b6ccd41ad312451b948a7413f0a142fd40d49347",
                    "v" : "0x1c"
                },
                "blocknumber" : "2",
                "chainname" : "A",
                "rlp" : "0xf9027cf90215a0ca35f4998735926f7ce09bd86e259ca02ea4ef0ab15dbdfdc560b0fad5e1c1b4a01dcc4de8dec75d7aab85b567b6ccd41ad312451b948a7413f0a142fd40d49347948888f1f195afa192cfee860698584c030f4c9db1a0e7e4760f75476ec7f51869d8bdce5c693058fd5a95c77ea9c0bf7ced1e50d70ea0c673e076264c4669a5c2e479f1757b78e42511efe33b5fd2c0a23b929c7f87f5a05ea1a8b24652fed0ecab4738edd9211891eb8c4353c345973b78a02cc0f32f6bb90100000000000000000000000000000000000000000000000000000000000000000000000000000000000000000000000000000000000000000000000000000000000000000000000000000000000000000000000000000000000000000000000000000000000000000000000000000000000000000000000000000000000000000000000000000000000000000000000000000000000000000000000000000000000000000000000000000000000000000000000000000000000000000000000000000000000000000000000000000000000000000000000000000000000000000000000000000000000000000000000000000000000000000000000000000000008302000002832fefba825208845a376728808080801ca0cf0121725948edce3aabf50c6bf7ee299115f28657a3152f2fe84f0b82d949b3a04c596c0f097062439ec20369792b85d0b9e1b99b26edc31184dd77a88eadcf98f861f85f01018304cb2f94095e7baea6a6c7c4c2dfeb977efac326af552d870a801ba033c86e64d708c97c6b135cadff79dbf45985aa0b53694789e90d15f756765f239f1d0f8caa2a16405148c9d85581be5814960010f3cba938b5501590cea1f7cfc0",
                "transactions" : [
                    {
                        "data" : "",
                        "gasLimit" : "0x04cb2f",
                        "gasPrice" : "0x01",
                        "nonce" : "0x01",
                        "r" : "0x33c86e64d708c97c6b135cadff79dbf45985aa0b53694789e90d15f756765f23",
                        "s" : "0x1d0f8caa2a16405148c9d85581be5814960010f3cba938b5501590cea1f7cf",
                        "to" : "0x095e7baea6a6c7c4c2dfeb977efac326af552d87",
                        "v" : "0x1b",
                        "value" : "0x0a"
                    }
                ],
                "uncleHeaders" : [
                ]
            },
            {
                "blockHeader" : {
                    "bloom" : "0x00000000000000000000000000000000000000000000000000000000000000000000000000000000000000000000000000000000000000000000000000000000000000000000000000000000000000000000000000000000000000000000000000000000000000000000000000000000000000000000000000000000000000000000000000000000000000000000000000000000000000000000000000000000000000000000000000000000000000000000000000000000000000000000000000000000000000000000000000000000000000000000000000000000000000000000000000000000000000000000000000000000000000000000000000000000",
                    "coinbase" : "0x8888f1f195afa192cfee860698584c030f4c9db1",
                    "difficulty" : "0x020000",
                    "extraData" : "",
                    "gasLimit" : "0x2fefba",
                    "gasUsed" : "0x5208",
                    "genesisTime" : "0x00",
                    "hardforkVersion" : "0x00",
                    "hash" : "0x33cf296f3883bca04b9c5ce1fc0f00a3205304c52f47d950c95d27c0b81a8152",
                    "number" : "0x01",
                    "parentHash" : "0x408968efa704f9c2a7ba35db351ee545e3dab0a1b7856a7681d1d9149c9190a2",
                    "r" : "0xdfe56af11b6a656a1dad6a3f191fb6f8799d6a6d48eeacff9d4c47959945cd92",
                    "receiptTrie" : "0xbcb5c54a9c1690fd2d9544f77f27c52ee53e82e21d6842f16787a38858225fbb",
                    "runningVersion" : "0x00",
                    "s" : "0x5e8b1c65905f0204863959eaebdfa92396e4a724026b29f52089b634db0922a4",
                    "stateRoot" : "0x1b5a6673bf1cb1fae85ff1aa7a851b9b3d7304908e62c30b9cb2da707be094a4",
                    "timestamp" : "0x5a376727",
                    "transactionsTrie" : "0x89176230d5c4ac60168e999c7a9fbea712992e712c253d635601a9d625c640fa",
                    "uncleHash" : "0x1dcc4de8dec75d7aab85b567b6ccd41ad312451b948a7413f0a142fd40d49347",
                    "v" : "0x1b"
                },
                "blocknumber" : "1",
                "chainname" : "B",
                "rlp" : "0xf9027df90215a0408968efa704f9c2a7ba35db351ee545e3dab0a1b7856a7681d1d9149c9190a2a01dcc4de8dec75d7aab85b567b6ccd41ad312451b948a7413f0a142fd40d49347948888f1f195afa192cfee860698584c030f4c9db1a01b5a6673bf1cb1fae85ff1aa7a851b9b3d7304908e62c30b9cb2da707be094a4a089176230d5c4ac60168e999c7a9fbea712992e712c253d635601a9d625c640faa0bcb5c54a9c1690fd2d9544f77f27c52ee53e82e21d6842f16787a38858225fbbb90100000000000000000000000000000000000000000000000000000000000000000000000000000000000000000000000000000000000000000000000000000000000000000000000000000000000000000000000000000000000000000000000000000000000000000000000000000000000000000000000000000000000000000000000000000000000000000000000000000000000000000000000000000000000000000000000000000000000000000000000000000000000000000000000000000000000000000000000000000000000000000000000000000000000000000000000000000000000000000000000000000000000000000000000000000000008302000001832fefba825208845a376727808080801ba0dfe56af11b6a656a1dad6a3f191fb6f8799d6a6d48eeacff9d4c47959945cd92a05e8b1c65905f0204863959eaebdfa92396e4a724026b29f52089b634db0922a4f862f86080018304cb2f94095e7baea6a6c7c4c2dfeb977efac326af552d8764801ca066995adf6b8ce265233fe0ef11b24f7571908674be85c347eed4359396cfa4b1a0458062325e034ea6722559f0153094069424c0d508b7b104f2635a52bfaaa532c0",
                "transactions" : [
                    {
                        "data" : "",
                        "gasLimit" : "0x04cb2f",
                        "gasPrice" : "0x01",
                        "nonce" : "0x00",
                        "r" : "0x66995adf6b8ce265233fe0ef11b24f7571908674be85c347eed4359396cfa4b1",
                        "s" : "0x458062325e034ea6722559f0153094069424c0d508b7b104f2635a52bfaaa532",
                        "to" : "0x095e7baea6a6c7c4c2dfeb977efac326af552d87",
                        "v" : "0x1c",
                        "value" : "0x64"
                    }
                ],
                "uncleHeaders" : [
                ]
            },
            {
                "blockHeader" : {
                    "bloom" : "0x00000000000000000000000000000000000000000000000000000000000000000000000000000000000000000000000000000000000000000000000000000000000000000000000000000000000000000000000000000000000000000000000000000000000000000000000000000000000000000000000000000000000000000000000000000000000000000000000000000000000000000000000000000000000000000000000000000000000000000000000000000000000000000000000000000000000000000000000000000000000000000000000000000000000000000000000000000000000000000000000000000000000000000000000000000000",
                    "coinbase" : "0x8888f1f195afa192cfee860698584c030f4c9db1",
                    "difficulty" : "0x020000",
                    "extraData" : "",
                    "gasLimit" : "0x2fefba",
                    "gasUsed" : "0x5208",
                    "genesisTime" : "0x00",
                    "hardforkVersion" : "0x00",
                    "hash" : "0x66e835a038cac8fecd71953ffb8551c95a7400ad0a9a7b49f4215c7de9dc9d39",
                    "number" : "0x02",
                    "parentHash" : "0x33cf296f3883bca04b9c5ce1fc0f00a3205304c52f47d950c95d27c0b81a8152",
                    "r" : "0xf54f94d0a84cb92a7925e8c1673d5d5a3a0a143604732894fa5bf8d78a0fbddf",
                    "receiptTrie" : "0x7fa6b426f40ed9fbcfdf1491008649c83e02bd4648492ff92d79de72c15cd11a",
                    "runningVersion" : "0x00",
                    "s" : "0x05108150a15b3c7852fc80f637c295e5c762f35444e845f743c668165c1f459c",
                    "stateRoot" : "0x7cefe422fd5c4adc434377bf4b7ae17c091cbe1c6fc687986debbec9c432994b",
                    "timestamp" : "0x5a376728",
                    "transactionsTrie" : "0x1517d551f5e39788f89454305805e9e71f154ea0919d5e052b03d652ef6f657d",
                    "uncleHash" : "0x1dcc4de8dec75d7aab85b567b6ccd41ad312451b948a7413f0a142fd40d49347",
                    "v" : "0x1b"
                },
                "blocknumber" : "2",
                "chainname" : "B",
                "rlp" : "0xf9027cf90215a033cf296f3883bca04b9c5ce1fc0f00a3205304c52f47d950c95d27c0b81a8152a01dcc4de8dec75d7aab85b567b6ccd41ad312451b948a7413f0a142fd40d49347948888f1f195afa192cfee860698584c030f4c9db1a07cefe422fd5c4adc434377bf4b7ae17c091cbe1c6fc687986debbec9c432994ba01517d551f5e39788f89454305805e9e71f154ea0919d5e052b03d652ef6f657da07fa6b426f40ed9fbcfdf1491008649c83e02bd4648492ff92d79de72c15cd11ab90100000000000000000000000000000000000000000000000000000000000000000000000000000000000000000000000000000000000000000000000000000000000000000000000000000000000000000000000000000000000000000000000000000000000000000000000000000000000000000000000000000000000000000000000000000000000000000000000000000000000000000000000000000000000000000000000000000000000000000000000000000000000000000000000000000000000000000000000000000000000000000000000000000000000000000000000000000000000000000000000000000000000000000000000000000000008302000002832fefba825208845a376728808080801ba0f54f94d0a84cb92a7925e8c1673d5d5a3a0a143604732894fa5bf8d78a0fbddfa005108150a15b3c7852fc80f637c295e5c762f35444e845f743c668165c1f459cf861f85f010182795394095e7baea6a6c7c4c2dfeb977efac326af552d8764801ba06ae7ce87f0c32417d409ba74b51cdf591f7515007c1c7ce9a4255010f46e1467a064b5f4b57fad4d9582bd666e1befd1e8943ba2f3ce7afc107f04aa4530d5a995c0",
                "transactions" : [
                    {
                        "data" : "",
                        "gasLimit" : "0x7953",
                        "gasPrice" : "0x01",
                        "nonce" : "0x01",
                        "r" : "0x6ae7ce87f0c32417d409ba74b51cdf591f7515007c1c7ce9a4255010f46e1467",
                        "s" : "0x64b5f4b57fad4d9582bd666e1befd1e8943ba2f3ce7afc107f04aa4530d5a995",
                        "to" : "0x095e7baea6a6c7c4c2dfeb977efac326af552d87",
                        "v" : "0x1b",
                        "value" : "0x64"
                    }
                ],
                "uncleHeaders" : [
                ]
            },
            {
                "blockHeader" : {
                    "bloom" : "0x00000000000000000000000000000000000000000000000000000000000000000000000000000000000000000000000000000000000000000000000000000000000000000000000000000000000000000000000000000000000000000000000000000000000000000000000000000000000000000000000000000000000000000000000000000000000000000000000000000000000000000000000000000000000000000000000000000000000000000000000000000000000000000000000000000000000000000000000000000000000000000000000000000000000000000000000000000000000000000000000000000000000000000000000000000000",
                    "coinbase" : "0x8888f1f195afa192cfee860698584c030f4c9db1",
                    "difficulty" : "0x020000",
                    "extraData" : "",
                    "gasLimit" : "0x2fefba",
                    "gasUsed" : "0xa520",
                    "genesisTime" : "0x00",
                    "hardforkVersion" : "0x00",
                    "hash" : "0xd7fdda045098ad5b3cba379825ffa30693efa2e442781ffd4efc6776ee0013a9",
                    "number" : "0x03",
                    "parentHash" : "0x66e835a038cac8fecd71953ffb8551c95a7400ad0a9a7b49f4215c7de9dc9d39",
                    "r" : "0x4a2659de2fb72c2486470518956ac823013fec0c98437472213aba005705bd00",
                    "receiptTrie" : "0x5a02ed94a6e5d6c9bacd6a8b130e93e244ace661eea1cfeee0dd7d5d1e2b1040",
                    "runningVersion" : "0x00",
                    "s" : "0x4bba788fe1e2b6ce2394c318a01b4ebf1025b6d170d0a9c2a4d127e4ac4bb908",
                    "stateRoot" : "0x95bfbb2eb79049c4803bc02673e07929eb22f99c786857b14d22a3de3b26ae55",
                    "timestamp" : "0x5a37672b",
                    "transactionsTrie" : "0x78477aaf28ad6a7c05765196a0e352baef952d24592631e2d954955cc6f903f0",
                    "uncleHash" : "0x1dcc4de8dec75d7aab85b567b6ccd41ad312451b948a7413f0a142fd40d49347",
                    "v" : "0x1b"
                },
                "blocknumber" : "3",
                "chainname" : "B",
                "rlp" : "0xf902e1f90215a066e835a038cac8fecd71953ffb8551c95a7400ad0a9a7b49f4215c7de9dc9d39a01dcc4de8dec75d7aab85b567b6ccd41ad312451b948a7413f0a142fd40d49347948888f1f195afa192cfee860698584c030f4c9db1a095bfbb2eb79049c4803bc02673e07929eb22f99c786857b14d22a3de3b26ae55a078477aaf28ad6a7c05765196a0e352baef952d24592631e2d954955cc6f903f0a05a02ed94a6e5d6c9bacd6a8b130e93e244ace661eea1cfeee0dd7d5d1e2b1040b90100000000000000000000000000000000000000000000000000000000000000000000000000000000000000000000000000000000000000000000000000000000000000000000000000000000000000000000000000000000000000000000000000000000000000000000000000000000000000000000000000000000000000000000000000000000000000000000000000000000000000000000000000000000000000000000000000000000000000000000000000000000000000000000000000000000000000000000000000000000000000000000000000000000000000000000000000000000000000000000000000000000000000000000000000000000008302000003832fefba82a520845a37672b808080801ba04a2659de2fb72c2486470518956ac823013fec0c98437472213aba005705bd00a04bba788fe1e2b6ce2394c318a01b4ebf1025b6d170d0a9c2a4d127e4ac4bb908f8c6f8630201827b1594095e7baea6a6c7c4c2dfeb977efac326af552d876484345345401ba0c912adcf452d35df5a1f79eaf137953512e39a643d44c25419acb9526baf1913a04d4529643671cfa998a7fb0ed28618f822d4141cee5796e43badf52cb46f435cf85f0301827b1594095e7baea6a6c7c4c2dfeb977efac326af552d8714801ca04ae9ddaa1757ec78622ffb35ca33ade06b0e771a2fd2f9036a0fe855030246b5a053b9db67598fc4d139f3c304d6f63b23a6872b654407ed4260738f054da4b6ffc0",
                "transactions" : [
                    {
                        "data" : "0x34534540",
                        "gasLimit" : "0x7b15",
                        "gasPrice" : "0x01",
                        "nonce" : "0x02",
                        "r" : "0xc912adcf452d35df5a1f79eaf137953512e39a643d44c25419acb9526baf1913",
                        "s" : "0x4d4529643671cfa998a7fb0ed28618f822d4141cee5796e43badf52cb46f435c",
                        "to" : "0x095e7baea6a6c7c4c2dfeb977efac326af552d87",
                        "v" : "0x1b",
                        "value" : "0x64"
                    },
                    {
                        "data" : "",
                        "gasLimit" : "0x7b15",
                        "gasPrice" : "0x01",
                        "nonce" : "0x03",
                        "r" : "0x4ae9ddaa1757ec78622ffb35ca33ade06b0e771a2fd2f9036a0fe855030246b5",
                        "s" : "0x53b9db67598fc4d139f3c304d6f63b23a6872b654407ed4260738f054da4b6ff",
                        "to" : "0x095e7baea6a6c7c4c2dfeb977efac326af552d87",
                        "v" : "0x1c",
                        "value" : "0x14"
                    }
                ],
                "uncleHeaders" : [
                ]
            },
            {
                "blockHeader" : {
                    "bloom" : "0x00000000000000000000000000000000000000000000000000000000000000000000000000000000000000000000000000000000000000000000000000000000000000000000000000000000000000000000000000000000000000000000000000000000000000000000000000000000000000000000000000000000000000000000000000000000000000000000000000000000000000000000000000000000000000000000000000000000000000000000000000000000000000000000000000000000000000000000000000000000000000000000000000000000000000000000000000000000000000000000000000000000000000000000000000000000",
                    "coinbase" : "0x8888f1f195afa192cfee860698584c030f4c9db1",
                    "difficulty" : "0x020000",
                    "extraData" : "",
                    "gasLimit" : "0x2fefba",
                    "gasUsed" : "0x5208",
                    "genesisTime" : "0x00",
                    "hardforkVersion" : "0x00",
                    "hash" : "0x84ec2c619994528c545e373db512318f0f068bda2a825e9b52d4ca13a223e493",
                    "number" : "0x03",
                    "parentHash" : "0x944fd103d8d8291ac55db090b75f399b4b3a5dff366dfc305d8d9b1e6f537ea5",
                    "r" : "0x8955ec21f80faa0a829f2b747641252a2acfd361b654759a4b7a448675de3bc4",
                    "receiptTrie" : "0x4ede0225773c7a517b91994aca65ade45124e7ef4b8be1e6097c9773a11920af",
                    "runningVersion" : "0x00",
                    "s" : "0x18b892aeb5b6596f0194e2af99a91467033324e49dce4c98e73dd7896430552b",
                    "stateRoot" : "0x611bfab1015d8c54765dff6be143b5ac81757633aa8859a72262099e1d848ce8",
                    "timestamp" : "0x5a37672b",
                    "transactionsTrie" : "0x1722b8a91bfc4f5614ce36ee77c7cce6620ab4af36d3c54baa66d7dbeb7bce1a",
                    "uncleHash" : "0x1dcc4de8dec75d7aab85b567b6ccd41ad312451b948a7413f0a142fd40d49347",
                    "v" : "0x1c"
                },
                "blocknumber" : "3",
                "chainname" : "A",
                "rlp" : "0xf9027df90215a0944fd103d8d8291ac55db090b75f399b4b3a5dff366dfc305d8d9b1e6f537ea5a01dcc4de8dec75d7aab85b567b6ccd41ad312451b948a7413f0a142fd40d49347948888f1f195afa192cfee860698584c030f4c9db1a0611bfab1015d8c54765dff6be143b5ac81757633aa8859a72262099e1d848ce8a01722b8a91bfc4f5614ce36ee77c7cce6620ab4af36d3c54baa66d7dbeb7bce1aa04ede0225773c7a517b91994aca65ade45124e7ef4b8be1e6097c9773a11920afb90100000000000000000000000000000000000000000000000000000000000000000000000000000000000000000000000000000000000000000000000000000000000000000000000000000000000000000000000000000000000000000000000000000000000000000000000000000000000000000000000000000000000000000000000000000000000000000000000000000000000000000000000000000000000000000000000000000000000000000000000000000000000000000000000000000000000000000000000000000000000000000000000000000000000000000000000000000000000000000000000000000000000000000000000000000000008302000003832fefba825208845a37672b808080801ca08955ec21f80faa0a829f2b747641252a2acfd361b654759a4b7a448675de3bc4a018b892aeb5b6596f0194e2af99a91467033324e49dce4c98e73dd7896430552bf862f86002018304cb2f94095e7baea6a6c7c4c2dfeb977efac326af552d870a801ca015eb1cc916728b9799e55c489857727669afb2986433d5f54cde11faaed9f0eea05d36f6d06c34aae8d0a2a5895c8ba4a17ad46a5fa59f361cb3e7e01a23030e38c0",
                "transactions" : [
                    {
                        "data" : "",
                        "gasLimit" : "0x04cb2f",
                        "gasPrice" : "0x01",
                        "nonce" : "0x02",
                        "r" : "0x15eb1cc916728b9799e55c489857727669afb2986433d5f54cde11faaed9f0ee",
                        "s" : "0x5d36f6d06c34aae8d0a2a5895c8ba4a17ad46a5fa59f361cb3e7e01a23030e38",
                        "to" : "0x095e7baea6a6c7c4c2dfeb977efac326af552d87",
                        "v" : "0x1c",
                        "value" : "0x0a"
                    }
                ],
                "uncleHeaders" : [
                ]
            },
            {
                "blockHeader" : {
                    "bloom" : "0x00000000000000000000000000000000000000000000000000000000000000000000000000000000000000000000000000000000000000000000000000000000000000000000000000000000000000000000000000000000000000000000000000000000000000000000000000000000000000000000000000000000000000000000000000000000000000000000000000000000000000000000000000000000000000000000000000000000000000000000000000000000000000000000000000000000000000000000000000000000000000000000000000000000000000000000000000000000000000000000000000000000000000000000000000000000",
                    "coinbase" : "0x8888f1f195afa192cfee860698584c030f4c9db1",
                    "difficulty" : "0x020000",
                    "extraData" : "",
                    "gasLimit" : "0x2fefba",
                    "gasUsed" : "0x5208",
                    "genesisTime" : "0x00",
                    "hardforkVersion" : "0x00",
                    "hash" : "0xbb2a51dbc4b37285a8b5378604b97caf6da17a4e060882c4454754fe5519213b",
                    "number" : "0x04",
                    "parentHash" : "0x84ec2c619994528c545e373db512318f0f068bda2a825e9b52d4ca13a223e493",
                    "r" : "0x30ba033466d504bfb79b2b4a198d19107854e9f764bbdfb1dfaf73cf280e9178",
                    "receiptTrie" : "0x69deb0f79afb53bdf4c14eba71e4404be1094d3d788ecc339f017c2e58893be9",
                    "runningVersion" : "0x00",
                    "s" : "0x6a364005d76eec46b8187059b613a814e4352cf6907b3e0ba2a1efa3c0b42a3e",
                    "stateRoot" : "0x0c3ce4dfb1b837f3b857028aff9c63f24359d84a006f1241770ab8331dde3107",
                    "timestamp" : "0x5a37672e",
                    "transactionsTrie" : "0x9735e49acaddb4d8338ed33df8dd006449b20b85e89e47224ac8ec8f7ea26071",
                    "uncleHash" : "0x1dcc4de8dec75d7aab85b567b6ccd41ad312451b948a7413f0a142fd40d49347",
                    "v" : "0x1b"
                },
                "blocknumber" : "4",
                "chainname" : "A",
                "rlp" : "0xf9027df90215a084ec2c619994528c545e373db512318f0f068bda2a825e9b52d4ca13a223e493a01dcc4de8dec75d7aab85b567b6ccd41ad312451b948a7413f0a142fd40d49347948888f1f195afa192cfee860698584c030f4c9db1a00c3ce4dfb1b837f3b857028aff9c63f24359d84a006f1241770ab8331dde3107a09735e49acaddb4d8338ed33df8dd006449b20b85e89e47224ac8ec8f7ea26071a069deb0f79afb53bdf4c14eba71e4404be1094d3d788ecc339f017c2e58893be9b90100000000000000000000000000000000000000000000000000000000000000000000000000000000000000000000000000000000000000000000000000000000000000000000000000000000000000000000000000000000000000000000000000000000000000000000000000000000000000000000000000000000000000000000000000000000000000000000000000000000000000000000000000000000000000000000000000000000000000000000000000000000000000000000000000000000000000000000000000000000000000000000000000000000000000000000000000000000000000000000000000000000000000000000000000000000008302000004832fefba825208845a37672e808080801ba030ba033466d504bfb79b2b4a198d19107854e9f764bbdfb1dfaf73cf280e9178a06a364005d76eec46b8187059b613a814e4352cf6907b3e0ba2a1efa3c0b42a3ef862f86003018304cb2f94095e7baea6a6c7c4c2dfeb977efac326af552d870a801ba0a7b7f2fa93025fc1e6aa18c1aa07c32a456439754e196cb74f2f7d12cf3e840da02078cf840fb25fc3d858b2a85b622f21be0588b5c5d81d433427f6470e06a4a7c0",
                "transactions" : [
                    {
                        "data" : "",
                        "gasLimit" : "0x04cb2f",
                        "gasPrice" : "0x01",
                        "nonce" : "0x03",
                        "r" : "0xa7b7f2fa93025fc1e6aa18c1aa07c32a456439754e196cb74f2f7d12cf3e840d",
                        "s" : "0x2078cf840fb25fc3d858b2a85b622f21be0588b5c5d81d433427f6470e06a4a7",
                        "to" : "0x095e7baea6a6c7c4c2dfeb977efac326af552d87",
                        "v" : "0x1b",
                        "value" : "0x0a"
                    }
                ],
                "uncleHeaders" : [
                ]
            }
        ],
        "genesisBlockHeader" : {
            "bloom" : "0x00000000000000000000000000000000000000000000000000000000000000000000000000000000000000000000000000000000000000000000000000000000000000000000000000000000000000000000000000000000000000000000000000000000000000000000000000000000000000000000000000000000000000000000000000000000000000000000000000000000000000000000000000000000000000000000000000000000000000000000000000000000000000000000000000000000000000000000000000000000000000000000000000000000000000000000000000000000000000000000000000000000000000000000000000000000",
            "coinbase" : "0x8888f1f195afa192cfee860698584c030f4c9db1",
            "difficulty" : "0x020000",
            "extraData" : "0x42",
            "gasLimit" : "0x2fefd8",
            "gasUsed" : "0x00",
            "genesisTime" : "0x00",
            "hardforkVersion" : "0x00",
            "hash" : "0x408968efa704f9c2a7ba35db351ee545e3dab0a1b7856a7681d1d9149c9190a2",
            "number" : "0x00",
            "parentHash" : "0x0000000000000000000000000000000000000000000000000000000000000000",
            "r" : "0x00",
            "receiptTrie" : "0x56e81f171bcc55a6ff8345e692c0f86e5b48e01b996cadc001622fb5e363b421",
            "runningVersion" : "0x00",
            "s" : "0x00",
            "stateRoot" : "0x7dba07d6b448a186e9612e5f737d1c909dce473e53199901a302c00646d523c1",
            "timestamp" : "0x54c98c81",
            "transactionsTrie" : "0x56e81f171bcc55a6ff8345e692c0f86e5b48e01b996cadc001622fb5e363b421",
            "uncleHash" : "0x1dcc4de8dec75d7aab85b567b6ccd41ad312451b948a7413f0a142fd40d49347",
            "v" : "0x1b"
        },
        "genesisRLP" : "0xf901d8f901d3a00000000000000000000000000000000000000000000000000000000000000000a01dcc4de8dec75d7aab85b567b6ccd41ad312451b948a7413f0a142fd40d49347948888f1f195afa192cfee860698584c030f4c9db1a07dba07d6b448a186e9612e5f737d1c909dce473e53199901a302c00646d523c1a056e81f171bcc55a6ff8345e692c0f86e5b48e01b996cadc001622fb5e363b421a056e81f171bcc55a6ff8345e692c0f86e5b48e01b996cadc001622fb5e363b421b90100000000000000000000000000000000000000000000000000000000000000000000000000000000000000000000000000000000000000000000000000000000000000000000000000000000000000000000000000000000000000000000000000000000000000000000000000000000000000000000000000000000000000000000000000000000000000000000000000000000000000000000000000000000000000000000000000000000000000000000000000000000000000000000000000000000000000000000000000000000000000000000000000000000000000000000000000000000000000000000000000000000000000000000000000000000008302000080832fefd8808454c98c81428080801b8080c0c0",
        "lastblockhash" : "0xbb2a51dbc4b37285a8b5378604b97caf6da17a4e060882c4454754fe5519213b",
        "network" : "Frontier",
        "postState" : {
            "0x095e7baea6a6c7c4c2dfeb977efac326af552d87" : {
                "balance" : "0x28",
                "code" : "",
                "nonce" : "0x00",
                "storage" : {
                }
            },
            "0x8888f1f195afa192cfee860698584c030f4c9db1" : {
                "balance" : "0x01158e460913d14820",
                "code" : "",
                "nonce" : "0x00",
                "storage" : {
                }
            },
            "0xa94f5374fce5edbc8e2a8697c15331677e6ebf0b" : {
                "balance" : "0x09184e7157b8",
                "code" : "",
                "nonce" : "0x04",
                "storage" : {
                }
            }
        },
        "pre" : {
            "0xa94f5374fce5edbc8e2a8697c15331677e6ebf0b" : {
                "balance" : "0x09184e72a000",
                "code" : "",
                "nonce" : "0x00",
                "storage" : {
                }
            }
        }
    }
}