{
    "AmIOnEIP150_Frontier" : {
        "_info" : {
            "comment" : "",
            "filledwith" : "cpp-1.3.0+commit.19890075.Windows.msvc",
            "lllcversion" : "Error getting LLLC Version",
            "source" : "src\\BlockchainTestsFiller\\bcForkStressTest\\AmIOnEIP150Filler.json",
            "sourceHash" : "83d85826adb3982903aed370aaae9e8b2710cad7032c0cdd6ea35a0195b44b3a"
        },
        "blocks" : [
            {
                "blockHeader" : {
                    "bloom" : "0x00000000000000000000000000000000000000000000000000000000000000000000000000000000000000000000000000000000000000000000000000000000000000000000000000000000000000000000000000000000000000000000000000000000000000000000000000000000000000000000000000000000000000000000000000000000000000000000000000000000000000000000000000000000000000000000000000000000000000000000000000000000000000000000000000000000000000000000000000000000000000000000000000000000000000000000000000000000000000000000000000000000000000000000000000000000",
                    "coinbase" : "0x2ecffd9dc5561bbdf23929a250bb99c758d64dbb",
                    "difficulty" : "0x020000",
                    "extraData" : "",
                    "gasLimit" : "0x2ffbd2",
                    "gasUsed" : "0x5208",
                    "genesisTime" : "0x00",
                    "hardforkVersion" : "0x00",
                    "hash" : "0x6692900ab2d2edcbaddce4853b1d333a7940953ac58432138372b174adf3ebd7",
                    "number" : "0x01",
                    "parentHash" : "0xc3bbaf27537dbafe49439b46dc8e4e3a9a3d0b2d62a0166b761cecf9b02b5379",
                    "r" : "0xceff945520504a60e0b369d475c1c89b4aadc04cc055476e54cedbb6180dc146",
                    "receiptTrie" : "0x056b23fbba480696b65fe5a59b8f2148a1299103c4f57df839233af2cf4ca2d2",
                    "runningVersion" : "0x00",
                    "s" : "0x650f5ed318e9451d5cedd4b3162cc8903cf2d9fbb872c1b84fc835e2fb88e3cb",
                    "stateRoot" : "0x5ab1dff593824a2f8f3d592a20d034b8783cbe217f50042914a0399c913d9edb",
                    "timestamp" : "0x5a376727",
                    "transactionsTrie" : "0x6fa2a3a10a3d40803cdbc07b306761ca0424b04fdddb004222f0f2f1dcdd91f3",
                    "uncleHash" : "0x1dcc4de8dec75d7aab85b567b6ccd41ad312451b948a7413f0a142fd40d49347",
                    "v" : "0x1b"
                },
                "blocknumber" : "1",
                "chainname" : "A",
                "rlp" : "0xf9027df90215a0c3bbaf27537dbafe49439b46dc8e4e3a9a3d0b2d62a0166b761cecf9b02b5379a01dcc4de8dec75d7aab85b567b6ccd41ad312451b948a7413f0a142fd40d49347942ecffd9dc5561bbdf23929a250bb99c758d64dbba05ab1dff593824a2f8f3d592a20d034b8783cbe217f50042914a0399c913d9edba06fa2a3a10a3d40803cdbc07b306761ca0424b04fdddb004222f0f2f1dcdd91f3a0056b23fbba480696b65fe5a59b8f2148a1299103c4f57df839233af2cf4ca2d2b90100000000000000000000000000000000000000000000000000000000000000000000000000000000000000000000000000000000000000000000000000000000000000000000000000000000000000000000000000000000000000000000000000000000000000000000000000000000000000000000000000000000000000000000000000000000000000000000000000000000000000000000000000000000000000000000000000000000000000000000000000000000000000000000000000000000000000000000000000000000000000000000000000000000000000000000000000000000000000000000000000000000000000000000000000000000008302000001832ffbd2825208845a376727808080801ba0ceff945520504a60e0b369d475c1c89b4aadc04cc055476e54cedbb6180dc146a0650f5ed318e9451d5cedd4b3162cc8903cf2d9fbb872c1b84fc835e2fb88e3cbf862f8608001830493e094b94f5374fce5edbc8e2a8697c15331677e6ebf0b0a801ba0261b1672e671176a6c30f525fa683fcecc0e42906f66811cc5724f61058e7432a0501d75e2b022a71cbac03d9adb29a2de19f91af0a199d16290d7545636087cd1c0",
                "transactions" : [
                    {
                        "data" : "",
                        "gasLimit" : "0x0493e0",
                        "gasPrice" : "0x01",
                        "nonce" : "0x00",
                        "r" : "0x261b1672e671176a6c30f525fa683fcecc0e42906f66811cc5724f61058e7432",
                        "s" : "0x501d75e2b022a71cbac03d9adb29a2de19f91af0a199d16290d7545636087cd1",
                        "to" : "0xb94f5374fce5edbc8e2a8697c15331677e6ebf0b",
                        "v" : "0x1b",
                        "value" : "0x0a"
                    }
                ],
                "uncleHeaders" : [
                ]
            }
        ],
        "genesisBlockHeader" : {
            "bloom" : "0x00000000000000000000000000000000000000000000000000000000000000000000000000000000000000000000000000000000000000000000000000000000000000000000000000000000000000000000000000000000000000000000000000000000000000000000000000000000000000000000000000000000000000000000000000000000000000000000000000000000000000000000000000000000000000000000000000000000000000000000000000000000000000000000000000000000000000000000000000000000000000000000000000000000000000000000000000000000000000000000000000000000000000000000000000000000",
            "coinbase" : "0x8888f1f195afa192cfee860698584c030f4c9db1",
            "difficulty" : "0x020000",
            "extraData" : "0x42",
            "gasLimit" : "0x2fefd8",
            "gasUsed" : "0x00",
            "genesisTime" : "0x00",
            "hardforkVersion" : "0x00",
            "hash" : "0xc3bbaf27537dbafe49439b46dc8e4e3a9a3d0b2d62a0166b761cecf9b02b5379",
            "number" : "0x00",
            "parentHash" : "0x0000000000000000000000000000000000000000000000000000000000000000",
            "r" : "0x00",
            "receiptTrie" : "0x56e81f171bcc55a6ff8345e692c0f86e5b48e01b996cadc001622fb5e363b421",
            "runningVersion" : "0x00",
            "s" : "0x00",
            "stateRoot" : "0x4bedc775b6ca8de7bc9a6ac5229319ffc02e066a99fb4475fb491ab35a24cd57",
            "timestamp" : "0x54c98c81",
            "transactionsTrie" : "0x56e81f171bcc55a6ff8345e692c0f86e5b48e01b996cadc001622fb5e363b421",
            "uncleHash" : "0x1dcc4de8dec75d7aab85b567b6ccd41ad312451b948a7413f0a142fd40d49347",
            "v" : "0x1b"
        },
        "genesisRLP" : "0xf901d8f901d3a00000000000000000000000000000000000000000000000000000000000000000a01dcc4de8dec75d7aab85b567b6ccd41ad312451b948a7413f0a142fd40d49347948888f1f195afa192cfee860698584c030f4c9db1a04bedc775b6ca8de7bc9a6ac5229319ffc02e066a99fb4475fb491ab35a24cd57a056e81f171bcc55a6ff8345e692c0f86e5b48e01b996cadc001622fb5e363b421a056e81f171bcc55a6ff8345e692c0f86e5b48e01b996cadc001622fb5e363b421b90100000000000000000000000000000000000000000000000000000000000000000000000000000000000000000000000000000000000000000000000000000000000000000000000000000000000000000000000000000000000000000000000000000000000000000000000000000000000000000000000000000000000000000000000000000000000000000000000000000000000000000000000000000000000000000000000000000000000000000000000000000000000000000000000000000000000000000000000000000000000000000000000000000000000000000000000000000000000000000000000000000000000000000000000000000000008302000080832fefd8808454c98c81428080801b8080c0c0",
        "lastblockhash" : "0x6692900ab2d2edcbaddce4853b1d333a7940953ac58432138372b174adf3ebd7",
        "network" : "Frontier",
        "postState" : {
            "0x2ecffd9dc5561bbdf23929a250bb99c758d64dbb" : {
                "balance" : "0x4563918244f45208",
                "code" : "",
                "nonce" : "0x00",
                "storage" : {
                }
            },
            "0xa94f5374fce5edbc8e2a8697c15331677e6ebf0b" : {
                "balance" : "0x09184e724dee",
                "code" : "",
                "nonce" : "0x01",
                "storage" : {
                }
            },
            "0xb94f5374fce5edbc8e2a8697c15331677e6ebf0b" : {
                "balance" : "0x0a",
                "code" : "",
                "nonce" : "0x00",
                "storage" : {
                }
            },
            "0xc94f5374fce5edbc8e2a8697c15331677e6ebf0b" : {
                "balance" : "0x00",
                "code" : "",
                "nonce" : "0x00",
                "storage" : {
                }
            }
        },
        "pre" : {
            "0xa94f5374fce5edbc8e2a8697c15331677e6ebf0b" : {
                "balance" : "0x09184e72a000",
                "code" : "",
                "nonce" : "0x00",
                "storage" : {
                }
            },
            "0xb94f5374fce5edbc8e2a8697c15331677e6ebf0b" : {
                "balance" : "0x00",
                "code" : "",
                "nonce" : "0x00",
                "storage" : {
                }
            },
            "0xc94f5374fce5edbc8e2a8697c15331677e6ebf0b" : {
                "balance" : "0x00",
                "code" : "",
                "nonce" : "0x00",
                "storage" : {
                }
            }
        }
    }
}