{
    "CallContractFromNotBestBlock_Frontier" : {
        "_info" : {
            "comment" : "",
            "filledwith" : "cpp-1.3.0+commit.19890075.Windows.msvc",
            "lllcversion" : "Error getting LLLC Version",
            "source" : "src\\BlockchainTestsFiller\\bcMultiChainTest\\CallContractFromNotBestBlockFiller.json",
            "sourceHash" : "b958a2dd2d70bad3259a77766c68685ab0bc6a03eced69707762f8d53536e3a1"
        },
        "blocks" : [
            {
                "blockHeader" : {
                    "bloom" : "0x00000000000000000000000000000000000000000000000000000000000000000000000000000000000000000000000000000000000000000000000000000000000000000000000000000000000000000000000000000000000000000000000000000000000000000000000000000000000000000000000000000000000000000000000000000000000000000000000000000000000000000000000000000000000000000000000000000000000000000000000000000000000000000000000000000000000000000000000000000000000000000000000000000000000000000000000000000000000000000000000000000000000000000000000000000000",
                    "coinbase" : "0x2ecffd9dc5561bbdf23929a250bb99c758d64dbb",
                    "difficulty" : "0x020000",
                    "extraData" : "",
                    "gasLimit" : "0x2ffbd2",
                    "gasUsed" : "0x5208",
                    "genesisTime" : "0x00",
                    "hardforkVersion" : "0x00",
                    "hash" : "0x741fd447d8877261df8a548631c003a141de22964bf490263e08369f7ffade26",
                    "number" : "0x01",
                    "parentHash" : "0x408968efa704f9c2a7ba35db351ee545e3dab0a1b7856a7681d1d9149c9190a2",
                    "r" : "0xf5332b1656691419959cb8acdeef8563b8d5cd21b205f9d2864feb4b445651f8",
                    "receiptTrie" : "0x056b23fbba480696b65fe5a59b8f2148a1299103c4f57df839233af2cf4ca2d2",
                    "runningVersion" : "0x00",
                    "s" : "0x6ebfc519ca3e4b23a29219d52a787d944bc833a2523335598c52a868f8175a9f",
                    "stateRoot" : "0x232cf4b48d74bca803a2d28a959c22403f1954452ef269d6e9db288fe7e951dc",
                    "timestamp" : "0x5a376727",
                    "transactionsTrie" : "0x5c9151c2413d1cd25c51ffb4ac38948acc1359bf08c6b49f283660e9bcf0f516",
                    "uncleHash" : "0x1dcc4de8dec75d7aab85b567b6ccd41ad312451b948a7413f0a142fd40d49347",
                    "v" : "0x1b"
                },
                "blocknumber" : "1",
                "chainname" : "A",
                "rlp" : "0xf9027df90215a0408968efa704f9c2a7ba35db351ee545e3dab0a1b7856a7681d1d9149c9190a2a01dcc4de8dec75d7aab85b567b6ccd41ad312451b948a7413f0a142fd40d49347942ecffd9dc5561bbdf23929a250bb99c758d64dbba0232cf4b48d74bca803a2d28a959c22403f1954452ef269d6e9db288fe7e951dca05c9151c2413d1cd25c51ffb4ac38948acc1359bf08c6b49f283660e9bcf0f516a0056b23fbba480696b65fe5a59b8f2148a1299103c4f57df839233af2cf4ca2d2b90100000000000000000000000000000000000000000000000000000000000000000000000000000000000000000000000000000000000000000000000000000000000000000000000000000000000000000000000000000000000000000000000000000000000000000000000000000000000000000000000000000000000000000000000000000000000000000000000000000000000000000000000000000000000000000000000000000000000000000000000000000000000000000000000000000000000000000000000000000000000000000000000000000000000000000000000000000000000000000000000000000000000000000000000000000000008302000001832ffbd2825208845a376727808080801ba0f5332b1656691419959cb8acdeef8563b8d5cd21b205f9d2864feb4b445651f8a06ebfc519ca3e4b23a29219d52a787d944bc833a2523335598c52a868f8175a9ff862f86080018304cb2f94095e7baea6a6c7c4c2dfeb977efac326af552d870a801ba077c7cd36820c71821c1aed59de46e70e701c4a8dd89c9ba508ab722210f60da8a03f29825d40c7c3f7bff3ca69267e0f3fb74b2d18b8c2c4e3c135b5d3b06e288dc0",
                "transactions" : [
                    {
                        "data" : "",
                        "gasLimit" : "0x04cb2f",
                        "gasPrice" : "0x01",
                        "nonce" : "0x00",
                        "r" : "0x77c7cd36820c71821c1aed59de46e70e701c4a8dd89c9ba508ab722210f60da8",
                        "s" : "0x3f29825d40c7c3f7bff3ca69267e0f3fb74b2d18b8c2c4e3c135b5d3b06e288d",
                        "to" : "0x095e7baea6a6c7c4c2dfeb977efac326af552d87",
                        "v" : "0x1b",
                        "value" : "0x0a"
                    }
                ],
                "uncleHeaders" : [
                ]
            },
            {
                "blockHeader" : {
                    "bloom" : "0x00000000000000000000000000000000000000000000000000000000000000000000000000000000000000000000000000000000000000000000000000000000000000000000000000000000000000000000000000000000000000000000000000000000000000000000000000000000000000000000000000000000000000000000000000000000000000000000000000000000000000000000000000000000000000000000000000000000000000000000000000000000000000000000000000000000000000000000000000000000000000000000000000000000000000000000000000000000000000000000000000000000000000000000000000000000",
                    "coinbase" : "0x5c30b1688bf9b515f268debf6e286c36dd1e1af3",
                    "difficulty" : "0x020000",
                    "extraData" : "",
                    "gasLimit" : "0x3007cf",
                    "gasUsed" : "0x04cb2f",
                    "genesisTime" : "0x00",
                    "hardforkVersion" : "0x00",
                    "hash" : "0x7033db8f48f60f845818eef9f7ce9e4473d17c6b4442d4f3921f2a9b88cdd8f1",
                    "number" : "0x02",
                    "parentHash" : "0x741fd447d8877261df8a548631c003a141de22964bf490263e08369f7ffade26",
                    "r" : "0x5979b1426f87c3992226123a3807913f665b1d97894fb5ff76496e686c49d9f1",
                    "receiptTrie" : "0x9f9fff4a5908c5e42ee5c75b99ed3f2fdf7c94e7f6dc9ef1ab642a0c84fc44b2",
                    "runningVersion" : "0x00",
                    "s" : "0x72366e7b04be9433230d2aeebf9bf0c49b950b0f27ab58032d0c10412b1c1f57",
                    "stateRoot" : "0xe6374d92f280ff7e4707aee1fff01091bbb6c05302568adc8a7fb3c683244440",
                    "timestamp" : "0x5a376728",
                    "transactionsTrie" : "0x73605c813df801dea03161bc2f66993a59f86babc47efa9d0e952bc79a26fabd",
                    "uncleHash" : "0x1dcc4de8dec75d7aab85b567b6ccd41ad312451b948a7413f0a142fd40d49347",
                    "v" : "0x1c"
                },
                "blocknumber" : "2",
                "chainname" : "A",
                "rlp" : "0xf902e9f90216a0741fd447d8877261df8a548631c003a141de22964bf490263e08369f7ffade26a01dcc4de8dec75d7aab85b567b6ccd41ad312451b948a7413f0a142fd40d49347945c30b1688bf9b515f268debf6e286c36dd1e1af3a0e6374d92f280ff7e4707aee1fff01091bbb6c05302568adc8a7fb3c683244440a073605c813df801dea03161bc2f66993a59f86babc47efa9d0e952bc79a26fabda09f9fff4a5908c5e42ee5c75b99ed3f2fdf7c94e7f6dc9ef1ab642a0c84fc44b2b90100000000000000000000000000000000000000000000000000000000000000000000000000000000000000000000000000000000000000000000000000000000000000000000000000000000000000000000000000000000000000000000000000000000000000000000000000000000000000000000000000000000000000000000000000000000000000000000000000000000000000000000000000000000000000000000000000000000000000000000000000000000000000000000000000000000000000000000000000000000000000000000000000000000000000000000000000000000000000000000000000000000000000000000000000000000008302000002833007cf8304cb2f845a376728808080801ca05979b1426f87c3992226123a3807913f665b1d97894fb5ff76496e686c49d9f1a072366e7b04be9433230d2aeebf9bf0c49b950b0f27ab58032d0c10412b1c1f57f8cdf8cb01018304cb2f8080b87e6060604052606e8060106000396000f360606040526000357c010000000000000000000000000000000000000000000000000000000090048063c0406226146037576035565b005b60406004506056565b6040518082815260200191505060405180910390f35b6000600560006000508190555060059050606b565b90561ca0b5a59222c12d3a9d52fddef1c7881a0dc7e72f5aed83be3cd7d7fdf868ec92a2a0551fea14e12dc99b6d78884bf5f0edae2da6ad4102d955057251d5d2aa8f54a5c0",
                "transactions" : [
                    {
                        "data" : "0x6060604052606e8060106000396000f360606040526000357c010000000000000000000000000000000000000000000000000000000090048063c0406226146037576035565b005b60406004506056565b6040518082815260200191505060405180910390f35b6000600560006000508190555060059050606b565b9056",
                        "gasLimit" : "0x04cb2f",
                        "gasPrice" : "0x01",
                        "nonce" : "0x01",
                        "r" : "0xb5a59222c12d3a9d52fddef1c7881a0dc7e72f5aed83be3cd7d7fdf868ec92a2",
                        "s" : "0x551fea14e12dc99b6d78884bf5f0edae2da6ad4102d955057251d5d2aa8f54a5",
                        "to" : "",
                        "v" : "0x1c",
                        "value" : "0x00"
                    }
                ],
                "uncleHeaders" : [
                ]
            },
            {
                "blockHeader" : {
                    "bloom" : "0x00000000000000000000000000000000000000000000000000000000000000000000000000000000000000000000000000000000000000000000000000000000000000000000000000000000000000000000000000000000000000000000000000000000000000000000000000000000000000000000000000000000000000000000000000000000000000000000000000000000000000000000000000000000000000000000000000000000000000000000000000000000000000000000000000000000000000000000000000000000000000000000000000000000000000000000000000000000000000000000000000000000000000000000000000000000",
                    "coinbase" : "0xfc9f39081b56b1612acbbf0bdfb350b53fae11d7",
                    "difficulty" : "0x020000",
                    "extraData" : "",
                    "gasLimit" : "0x3013cf",
                    "gasUsed" : "0x5208",
                    "genesisTime" : "0x00",
                    "hardforkVersion" : "0x00",
                    "hash" : "0xfbfc9cdc2b0ebf9c7ae8d14ee7bb1189fef4008524d8c7a1740d27866a36b907",
                    "number" : "0x03",
                    "parentHash" : "0x7033db8f48f60f845818eef9f7ce9e4473d17c6b4442d4f3921f2a9b88cdd8f1",
                    "r" : "0xe0ba0983141d404b61f200a7ea29b698be6053246addd7b97e13e156390ea0e6",
                    "receiptTrie" : "0x056b23fbba480696b65fe5a59b8f2148a1299103c4f57df839233af2cf4ca2d2",
                    "runningVersion" : "0x00",
                    "s" : "0x2e889cf347d18a6d7758b6d2aafdb63b24c2251d73b456a9f8e3bd83b18eb2e7",
                    "stateRoot" : "0x61593e0cd3a00ca933bedbcdbcb7ece4d39fa33daec63df779b6cfdb892fdbfc",
                    "timestamp" : "0x5a37672b",
                    "transactionsTrie" : "0x88d2ec6b9860aae1a2c3b299f72b6a5d70d7f7ba4722c78f2c49ba96273c2158",
                    "uncleHash" : "0x1dcc4de8dec75d7aab85b567b6ccd41ad312451b948a7413f0a142fd40d49347",
                    "v" : "0x1c"
                },
                "blocknumber" : "3",
                "chainname" : "A",
                "rlp" : "0xf9027df90215a07033db8f48f60f845818eef9f7ce9e4473d17c6b4442d4f3921f2a9b88cdd8f1a01dcc4de8dec75d7aab85b567b6ccd41ad312451b948a7413f0a142fd40d4934794fc9f39081b56b1612acbbf0bdfb350b53fae11d7a061593e0cd3a00ca933bedbcdbcb7ece4d39fa33daec63df779b6cfdb892fdbfca088d2ec6b9860aae1a2c3b299f72b6a5d70d7f7ba4722c78f2c49ba96273c2158a0056b23fbba480696b65fe5a59b8f2148a1299103c4f57df839233af2cf4ca2d2b90100000000000000000000000000000000000000000000000000000000000000000000000000000000000000000000000000000000000000000000000000000000000000000000000000000000000000000000000000000000000000000000000000000000000000000000000000000000000000000000000000000000000000000000000000000000000000000000000000000000000000000000000000000000000000000000000000000000000000000000000000000000000000000000000000000000000000000000000000000000000000000000000000000000000000000000000000000000000000000000000000000000000000000000000000000000008302000003833013cf825208845a37672b808080801ca0e0ba0983141d404b61f200a7ea29b698be6053246addd7b97e13e156390ea0e6a02e889cf347d18a6d7758b6d2aafdb63b24c2251d73b456a9f8e3bd83b18eb2e7f862f86002018304cb2f94ec0e71ad0a90ffe1909d27dac207f7680abba42d01801ba03a347e72953c860f32b1eb2c78a680d8734b2ea08085d949d729479796f218d5a047ea6239d9e31ccac8af3366f5ca37184d26e7646e3191a3aeb81c4cf74de500c0",
                "transactions" : [
                    {
                        "data" : "",
                        "gasLimit" : "0x04cb2f",
                        "gasPrice" : "0x01",
                        "nonce" : "0x02",
                        "r" : "0x3a347e72953c860f32b1eb2c78a680d8734b2ea08085d949d729479796f218d5",
                        "s" : "0x47ea6239d9e31ccac8af3366f5ca37184d26e7646e3191a3aeb81c4cf74de500",
                        "to" : "0xec0e71ad0a90ffe1909d27dac207f7680abba42d",
                        "v" : "0x1b",
                        "value" : "0x01"
                    }
                ],
                "uncleHeaders" : [
                ]
            },
            {
                "blockHeader" : {
                    "bloom" : "0x00000000000000000000000000000000000000000000000000000000000000000000000000000000000000000000000000000000000000000000000000000000000000000000000000000000000000000000000000000000000000000000000000000000000000000000000000000000000000000000000000000000000000000000000000000000000000000000000000000000000000000000000000000000000000000000000000000000000000000000000000000000000000000000000000000000000000000000000000000000000000000000000000000000000000000000000000000000000000000000000000000000000000000000000000000000",
                    "coinbase" : "0xfc9f39081b56b1612acbbf0bdfb350b53fae11d7",
                    "difficulty" : "0x020000",
                    "extraData" : "",
                    "gasLimit" : "0x3013cf",
                    "gasUsed" : "0x5318",
                    "genesisTime" : "0x00",
                    "hardforkVersion" : "0x00",
                    "hash" : "0x702282c40b9ae11bc2c19fb69dfa1351508d3b8c50d345d045dd68b91afbe5eb",
                    "number" : "0x03",
                    "parentHash" : "0x7033db8f48f60f845818eef9f7ce9e4473d17c6b4442d4f3921f2a9b88cdd8f1",
                    "r" : "0x8fa5618ed114729ee83319c559284061e8e51ec912966e2baadc2c49525dcb08",
                    "receiptTrie" : "0x24690914c0b962fe99977f721c628b5eb0cd400e4e2a38093cc1f1104418e406",
                    "runningVersion" : "0x00",
                    "s" : "0x0d418f9d8f1a131c50bf5c4adac33bac68833a1b0dac2c5486be0ee15fe1f37b",
                    "stateRoot" : "0x2e6c66f1d7a9f6f35e201f11bfdd7dbdc7d21722a84d20c34e014b03f05abc5e",
                    "timestamp" : "0x5a37672b",
                    "transactionsTrie" : "0xae80fba3191a520feaeaa816d72180278bb03b7dd46f02f742d9384935122e6d",
                    "uncleHash" : "0x1dcc4de8dec75d7aab85b567b6ccd41ad312451b948a7413f0a142fd40d49347",
                    "v" : "0x1c"
                },
                "blocknumber" : "3",
                "chainname" : "A",
                "rlp" : "0xf90281f90215a07033db8f48f60f845818eef9f7ce9e4473d17c6b4442d4f3921f2a9b88cdd8f1a01dcc4de8dec75d7aab85b567b6ccd41ad312451b948a7413f0a142fd40d4934794fc9f39081b56b1612acbbf0bdfb350b53fae11d7a02e6c66f1d7a9f6f35e201f11bfdd7dbdc7d21722a84d20c34e014b03f05abc5ea0ae80fba3191a520feaeaa816d72180278bb03b7dd46f02f742d9384935122e6da024690914c0b962fe99977f721c628b5eb0cd400e4e2a38093cc1f1104418e406b90100000000000000000000000000000000000000000000000000000000000000000000000000000000000000000000000000000000000000000000000000000000000000000000000000000000000000000000000000000000000000000000000000000000000000000000000000000000000000000000000000000000000000000000000000000000000000000000000000000000000000000000000000000000000000000000000000000000000000000000000000000000000000000000000000000000000000000000000000000000000000000000000000000000000000000000000000000000000000000000000000000000000000000000000000000000008302000003833013cf825318845a37672b808080801ca08fa5618ed114729ee83319c559284061e8e51ec912966e2baadc2c49525dcb08a00d418f9d8f1a131c50bf5c4adac33bac68833a1b0dac2c5486be0ee15fe1f37bf866f86402018304cb2f94ec0e71ad0a90ffe1909d27dac207f7680abba42d0284c04062261ba0a3bb6e8efde6041f73e1efa10baef697fd1dab7662cb6f6fb699d72e9906e428a07cd441a417a5969d49af5651a05131a5d717b6823db4595aee2ef2e7bcb4f705c0",
                "transactions" : [
                    {
                        "data" : "0xc0406226",
                        "gasLimit" : "0x04cb2f",
                        "gasPrice" : "0x01",
                        "nonce" : "0x02",
                        "r" : "0xa3bb6e8efde6041f73e1efa10baef697fd1dab7662cb6f6fb699d72e9906e428",
                        "s" : "0x7cd441a417a5969d49af5651a05131a5d717b6823db4595aee2ef2e7bcb4f705",
                        "to" : "0xec0e71ad0a90ffe1909d27dac207f7680abba42d",
                        "v" : "0x1b",
                        "value" : "0x02"
                    }
                ],
                "uncleHeaders" : [
                ]
            }
        ],
        "genesisBlockHeader" : {
            "bloom" : "0x00000000000000000000000000000000000000000000000000000000000000000000000000000000000000000000000000000000000000000000000000000000000000000000000000000000000000000000000000000000000000000000000000000000000000000000000000000000000000000000000000000000000000000000000000000000000000000000000000000000000000000000000000000000000000000000000000000000000000000000000000000000000000000000000000000000000000000000000000000000000000000000000000000000000000000000000000000000000000000000000000000000000000000000000000000000",
            "coinbase" : "0x8888f1f195afa192cfee860698584c030f4c9db1",
            "difficulty" : "0x020000",
            "extraData" : "0x42",
            "gasLimit" : "0x2fefd8",
            "gasUsed" : "0x00",
            "genesisTime" : "0x00",
            "hardforkVersion" : "0x00",
            "hash" : "0x408968efa704f9c2a7ba35db351ee545e3dab0a1b7856a7681d1d9149c9190a2",
            "number" : "0x00",
            "parentHash" : "0x0000000000000000000000000000000000000000000000000000000000000000",
            "r" : "0x00",
            "receiptTrie" : "0x56e81f171bcc55a6ff8345e692c0f86e5b48e01b996cadc001622fb5e363b421",
            "runningVersion" : "0x00",
            "s" : "0x00",
            "stateRoot" : "0x7dba07d6b448a186e9612e5f737d1c909dce473e53199901a302c00646d523c1",
            "timestamp" : "0x54c98c81",
            "transactionsTrie" : "0x56e81f171bcc55a6ff8345e692c0f86e5b48e01b996cadc001622fb5e363b421",
            "uncleHash" : "0x1dcc4de8dec75d7aab85b567b6ccd41ad312451b948a7413f0a142fd40d49347",
            "v" : "0x1b"
        },
        "genesisRLP" : "0xf901d8f901d3a00000000000000000000000000000000000000000000000000000000000000000a01dcc4de8dec75d7aab85b567b6ccd41ad312451b948a7413f0a142fd40d49347948888f1f195afa192cfee860698584c030f4c9db1a07dba07d6b448a186e9612e5f737d1c909dce473e53199901a302c00646d523c1a056e81f171bcc55a6ff8345e692c0f86e5b48e01b996cadc001622fb5e363b421a056e81f171bcc55a6ff8345e692c0f86e5b48e01b996cadc001622fb5e363b421b90100000000000000000000000000000000000000000000000000000000000000000000000000000000000000000000000000000000000000000000000000000000000000000000000000000000000000000000000000000000000000000000000000000000000000000000000000000000000000000000000000000000000000000000000000000000000000000000000000000000000000000000000000000000000000000000000000000000000000000000000000000000000000000000000000000000000000000000000000000000000000000000000000000000000000000000000000000000000000000000000000000000000000000000000000000000008302000080832fefd8808454c98c81428080801b8080c0c0",
        "lastblockhash" : "0xfbfc9cdc2b0ebf9c7ae8d14ee7bb1189fef4008524d8c7a1740d27866a36b907",
        "network" : "Frontier",
        "postState" : {
            "0x095e7baea6a6c7c4c2dfeb977efac326af552d87" : {
                "balance" : "0x0a",
                "code" : "",
                "nonce" : "0x00",
                "storage" : {
                }
            },
            "0x2ecffd9dc5561bbdf23929a250bb99c758d64dbb" : {
                "balance" : "0x4563918244f45208",
                "code" : "",
                "nonce" : "0x00",
                "storage" : {
                }
            },
            "0x5c30b1688bf9b515f268debf6e286c36dd1e1af3" : {
                "balance" : "0x4563918244f8cb2f",
                "code" : "",
                "nonce" : "0x00",
                "storage" : {
                }
            },
            "0xa94f5374fce5edbc8e2a8697c15331677e6ebf0b" : {
                "balance" : "0x09184e6d30b6",
                "code" : "",
                "nonce" : "0x03",
                "storage" : {
                }
            },
            "0xec0e71ad0a90ffe1909d27dac207f7680abba42d" : {
                "balance" : "0x01",
                "code" : "",
                "nonce" : "0x00",
                "storage" : {
                }
            },
            "0xfc9f39081b56b1612acbbf0bdfb350b53fae11d7" : {
                "balance" : "0x4563918244f45208",
                "code" : "",
                "nonce" : "0x00",
                "storage" : {
                }
            }
        },
        "pre" : {
            "0xa94f5374fce5edbc8e2a8697c15331677e6ebf0b" : {
                "balance" : "0x09184e72a000",
                "code" : "",
                "nonce" : "0x00",
                "storage" : {
                }
            }
        }
    }
}