{
    "ChainAtoChainB_BlockHash_Frontier" : {
        "_info" : {
            "comment" : "",
            "filledwith" : "cpp-1.3.0+commit.19890075.Windows.msvc",
            "lllcversion" : "Error getting LLLC Version",
            "source" : "src\\BlockchainTestsFiller\\bcMultiChainTest\\ChainAtoChainB_BlockHashFiller.json",
            "sourceHash" : "f93a5df749101786aeb5eda302173ddcb6d45148c7b3341bdc690b3f64b83392"
        },
        "blocks" : [
            {
                "blockHeader" : {
                    "bloom" : "0x00000000000000000000000000000000000000000000000000000000000000000000000000000000000000000000000000000000000000000000000000000000000000000000000000000000000000000000000000000000000000000000000000000000000000000000000000000000000000000000000000000000000000000000000000000000000000000000000000000000000000000000000000000000000000000000000000000000000000000000000000000000000000000000000000000000000000000000000000000000000000000000000000000000000000000000000000000000000000000000000000000000000000000000000000000000",
                    "coinbase" : "0x2ecffd9dc5561bbdf23929a250bb99c758d64dbb",
                    "difficulty" : "0x020000",
                    "extraData" : "",
                    "gasLimit" : "0x2ffbd2",
                    "gasUsed" : "0x5208",
                    "genesisTime" : "0x00",
                    "hardforkVersion" : "0x00",
                    "hash" : "0x3d6f11289f65d16a37c8deb2ffb045d57d4dc57dafa3a9073ffc19b6687d926f",
                    "number" : "0x01",
                    "parentHash" : "0xe1cff7456e3ab95f375d80da33861a721d4ddb946b9331e779c1e6d820208874",
                    "r" : "0xcaa0ec94e2b808cb862c075f707cb2027ba17d53acc667010bb3bb5d551d7c32",
                    "receiptTrie" : "0x056b23fbba480696b65fe5a59b8f2148a1299103c4f57df839233af2cf4ca2d2",
                    "runningVersion" : "0x00",
                    "s" : "0x13f5bdd9b7db2588015e7f8fb740646950ec75d92b626cad0143ad92d650f77c",
                    "stateRoot" : "0x20352cf96f31e1966d058844f11d3ee753afee7bb5784dcca93646c07b772216",
                    "timestamp" : "0x5a376727",
                    "transactionsTrie" : "0xf80217763f8d00269566918ebd3c7729465f8b9818a0f437bf215a8190884d5d",
                    "uncleHash" : "0x1dcc4de8dec75d7aab85b567b6ccd41ad312451b948a7413f0a142fd40d49347",
                    "v" : "0x1c"
                },
                "blocknumber" : "1",
                "chainname" : "A",
                "rlp" : "0xf9027df90215a0e1cff7456e3ab95f375d80da33861a721d4ddb946b9331e779c1e6d820208874a01dcc4de8dec75d7aab85b567b6ccd41ad312451b948a7413f0a142fd40d49347942ecffd9dc5561bbdf23929a250bb99c758d64dbba020352cf96f31e1966d058844f11d3ee753afee7bb5784dcca93646c07b772216a0f80217763f8d00269566918ebd3c7729465f8b9818a0f437bf215a8190884d5da0056b23fbba480696b65fe5a59b8f2148a1299103c4f57df839233af2cf4ca2d2b90100000000000000000000000000000000000000000000000000000000000000000000000000000000000000000000000000000000000000000000000000000000000000000000000000000000000000000000000000000000000000000000000000000000000000000000000000000000000000000000000000000000000000000000000000000000000000000000000000000000000000000000000000000000000000000000000000000000000000000000000000000000000000000000000000000000000000000000000000000000000000000000000000000000000000000000000000000000000000000000000000000000000000000000000000000000008302000001832ffbd2825208845a376727808080801ca0caa0ec94e2b808cb862c075f707cb2027ba17d53acc667010bb3bb5d551d7c32a013f5bdd9b7db2588015e7f8fb740646950ec75d92b626cad0143ad92d650f77cf862f86080018304cb2f94a95e7baea6a6c7c4c2dfeb977efac326af552d870a801ca0886931af2e4e440628e6e862e50944534ff3068c38cabb908dc708fa3736bfe0a03de874195b35641546d6c48409cca106127e5260a67fe7ed21a35dfb1f7a08b5c0",
                "transactions" : [
                    {
                        "data" : "",
                        "gasLimit" : "0x04cb2f",
                        "gasPrice" : "0x01",
                        "nonce" : "0x00",
                        "r" : "0x886931af2e4e440628e6e862e50944534ff3068c38cabb908dc708fa3736bfe0",
                        "s" : "0x3de874195b35641546d6c48409cca106127e5260a67fe7ed21a35dfb1f7a08b5",
                        "to" : "0xa95e7baea6a6c7c4c2dfeb977efac326af552d87",
                        "v" : "0x1c",
                        "value" : "0x0a"
                    }
                ],
                "uncleHeaders" : [
                ]
            },
            {
                "blockHeader" : {
                    "bloom" : "0x00000000000000000000000000000000000000000000000000000000000000000000000000000000000000000000000000000000000000000000000000000000000000000000000000000000000000000000000000000000000000000000000000000000000000000000000000000000000000000000000000000000000000000000000000000000000000000000000000000000000000000000000000000000000000000000000000000000000000000000000000000000000000000000000000000000000000000000000000000000000000000000000000000000000000000000000000000000000000000000000000000000000000000000000000000000",
                    "coinbase" : "0x5c30b1688bf9b515f268debf6e286c36dd1e1af3",
                    "difficulty" : "0x020000",
                    "extraData" : "",
                    "gasLimit" : "0x3007cf",
                    "gasUsed" : "0x5208",
                    "genesisTime" : "0x00",
                    "hardforkVersion" : "0x00",
                    "hash" : "0x19dfe8766b3c40fba0bfc5bf0e63cb4f09d8ca17cb866eef571cb63297a2c6f1",
                    "number" : "0x02",
                    "parentHash" : "0x3d6f11289f65d16a37c8deb2ffb045d57d4dc57dafa3a9073ffc19b6687d926f",
                    "r" : "0xc64be55fffa07e96f77f0895a1eefb4e6dee83fbb5689cfd5a389fd1af9e5e81",
                    "receiptTrie" : "0x056b23fbba480696b65fe5a59b8f2148a1299103c4f57df839233af2cf4ca2d2",
                    "runningVersion" : "0x00",
                    "s" : "0x454819234f1d868903c866ce5814a46d48752db48103235c8f95d487366ecc5c",
                    "stateRoot" : "0x70c37077e8baed8290ced69af319a31e73024ebb7bd0c5a36c5a18ad74b542bb",
                    "timestamp" : "0x5a376728",
                    "transactionsTrie" : "0xc673e076264c4669a5c2e479f1757b78e42511efe33b5fd2c0a23b929c7f87f5",
                    "uncleHash" : "0x1dcc4de8dec75d7aab85b567b6ccd41ad312451b948a7413f0a142fd40d49347",
                    "v" : "0x1b"
                },
                "blocknumber" : "2",
                "chainname" : "A",
                "rlp" : "0xf9027cf90215a03d6f11289f65d16a37c8deb2ffb045d57d4dc57dafa3a9073ffc19b6687d926fa01dcc4de8dec75d7aab85b567b6ccd41ad312451b948a7413f0a142fd40d49347945c30b1688bf9b515f268debf6e286c36dd1e1af3a070c37077e8baed8290ced69af319a31e73024ebb7bd0c5a36c5a18ad74b542bba0c673e076264c4669a5c2e479f1757b78e42511efe33b5fd2c0a23b929c7f87f5a0056b23fbba480696b65fe5a59b8f2148a1299103c4f57df839233af2cf4ca2d2b90100000000000000000000000000000000000000000000000000000000000000000000000000000000000000000000000000000000000000000000000000000000000000000000000000000000000000000000000000000000000000000000000000000000000000000000000000000000000000000000000000000000000000000000000000000000000000000000000000000000000000000000000000000000000000000000000000000000000000000000000000000000000000000000000000000000000000000000000000000000000000000000000000000000000000000000000000000000000000000000000000000000000000000000000000000000008302000002833007cf825208845a376728808080801ba0c64be55fffa07e96f77f0895a1eefb4e6dee83fbb5689cfd5a389fd1af9e5e81a0454819234f1d868903c866ce5814a46d48752db48103235c8f95d487366ecc5cf861f85f01018304cb2f94095e7baea6a6c7c4c2dfeb977efac326af552d870a801ba033c86e64d708c97c6b135cadff79dbf45985aa0b53694789e90d15f756765f239f1d0f8caa2a16405148c9d85581be5814960010f3cba938b5501590cea1f7cfc0",
                "transactions" : [
                    {
                        "data" : "",
                        "gasLimit" : "0x04cb2f",
                        "gasPrice" : "0x01",
                        "nonce" : "0x01",
                        "r" : "0x33c86e64d708c97c6b135cadff79dbf45985aa0b53694789e90d15f756765f23",
                        "s" : "0x1d0f8caa2a16405148c9d85581be5814960010f3cba938b5501590cea1f7cf",
                        "to" : "0x095e7baea6a6c7c4c2dfeb977efac326af552d87",
                        "v" : "0x1b",
                        "value" : "0x0a"
                    }
                ],
                "uncleHeaders" : [
                ]
            },
            {
                "blockHeader" : {
                    "bloom" : "0x00000000000000000000000000000000000000000000000000000000000000000000000000000000000000000000000000000000000000000000000000000000000000000000000000000000000000000000000000000000000000000000000000000000000000000000000000000000000000000000000000000000000000000000000000000000000000000000000000000000000000000000000000000000000000000000000000000000000000000000000000000000000000000000000000000000000000000000000000000000000000000000000000000000000000000000000000000000000000000000000000000000000000000000000000000000",
                    "coinbase" : "0xfc9f39081b56b1612acbbf0bdfb350b53fae11d7",
                    "difficulty" : "0x020000",
                    "extraData" : "",
                    "gasLimit" : "0x3013cf",
                    "gasUsed" : "0x5208",
                    "genesisTime" : "0x00",
                    "hardforkVersion" : "0x00",
                    "hash" : "0xfc9870a64b8c7075007566be2020b8f5178df2d1561c2008cf3c5eeb5cb108b8",
                    "number" : "0x03",
                    "parentHash" : "0x19dfe8766b3c40fba0bfc5bf0e63cb4f09d8ca17cb866eef571cb63297a2c6f1",
                    "r" : "0x419d36a76d8c011ece93757352cc69cbc2a6e2975e88526dfa61805fd9595083",
                    "receiptTrie" : "0x056b23fbba480696b65fe5a59b8f2148a1299103c4f57df839233af2cf4ca2d2",
                    "runningVersion" : "0x00",
                    "s" : "0x1310ebf017f3b29f6ba0d1cf0a704261126ba1b8348dee0551d5317b10453851",
                    "stateRoot" : "0x61f79ba6609e90d2f7a336d62ceb9abdc912516176677089e266f581c1f6ebad",
                    "timestamp" : "0x5a376740",
                    "transactionsTrie" : "0xe4ddf887030952f0f259c5e4ea01be3271c08e931e39f32f7b8fa6d7c772e759",
                    "uncleHash" : "0x1dcc4de8dec75d7aab85b567b6ccd41ad312451b948a7413f0a142fd40d49347",
                    "v" : "0x1b"
                },
                "blocknumber" : "3",
                "chainname" : "A",
                "rlp" : "0xf9027df90215a019dfe8766b3c40fba0bfc5bf0e63cb4f09d8ca17cb866eef571cb63297a2c6f1a01dcc4de8dec75d7aab85b567b6ccd41ad312451b948a7413f0a142fd40d4934794fc9f39081b56b1612acbbf0bdfb350b53fae11d7a061f79ba6609e90d2f7a336d62ceb9abdc912516176677089e266f581c1f6ebada0e4ddf887030952f0f259c5e4ea01be3271c08e931e39f32f7b8fa6d7c772e759a0056b23fbba480696b65fe5a59b8f2148a1299103c4f57df839233af2cf4ca2d2b90100000000000000000000000000000000000000000000000000000000000000000000000000000000000000000000000000000000000000000000000000000000000000000000000000000000000000000000000000000000000000000000000000000000000000000000000000000000000000000000000000000000000000000000000000000000000000000000000000000000000000000000000000000000000000000000000000000000000000000000000000000000000000000000000000000000000000000000000000000000000000000000000000000000000000000000000000000000000000000000000000000000000000000000000000000000008302000003833013cf825208845a376740808080801ba0419d36a76d8c011ece93757352cc69cbc2a6e2975e88526dfa61805fd9595083a01310ebf017f3b29f6ba0d1cf0a704261126ba1b8348dee0551d5317b10453851f862f86002018304cb2f94a95e7baea6a6c7c4c2dfeb977efac326af552d870a801ca04c5dbd975005a9dd8c5d871ca55eae1ebc2931db605bae918121448cddd02e74a042df3d63071196c4c66fe0db760150fe7c176f3dce7daba73b5c8bcadc53f102c0",
                "transactions" : [
                    {
                        "data" : "",
                        "gasLimit" : "0x04cb2f",
                        "gasPrice" : "0x01",
                        "nonce" : "0x02",
                        "r" : "0x4c5dbd975005a9dd8c5d871ca55eae1ebc2931db605bae918121448cddd02e74",
                        "s" : "0x42df3d63071196c4c66fe0db760150fe7c176f3dce7daba73b5c8bcadc53f102",
                        "to" : "0xa95e7baea6a6c7c4c2dfeb977efac326af552d87",
                        "v" : "0x1c",
                        "value" : "0x0a"
                    }
                ],
                "uncleHeaders" : [
                ]
            },
            {
                "blockHeader" : {
                    "bloom" : "0x00000000000000000000000000000000000000000000000000000000000000000000000000000000000000000000000000000000000000000000000000000000000000000000000000000000000000000000000000000000000000000000000000000000000000000000000000000000000000000000000000000000000000000000000000000000000000000000000000000000000000000000000000000000000000000000000000000000000000000000000000000000000000000000000000000000000000000000000000000000000000000000000000000000000000000000000000000000000000000000000000000000000000000000000000000000",
                    "coinbase" : "0x2ecffd9dc5561bbdf23929a250bb99c758d64dbb",
                    "difficulty" : "0x020000",
                    "extraData" : "",
                    "gasLimit" : "0x2ffbd2",
                    "gasUsed" : "0x5208",
                    "genesisTime" : "0x00",
                    "hardforkVersion" : "0x00",
                    "hash" : "0xbc8449493d00f2906630bdf0c6faa419343772027bd1d5f01fe55d78035d3675",
                    "number" : "0x01",
                    "parentHash" : "0xe1cff7456e3ab95f375d80da33861a721d4ddb946b9331e779c1e6d820208874",
                    "r" : "0x60d64c6c89f18c6299e847b804a2264be5c5237004f51a1a4d77d0edc727b18d",
                    "receiptTrie" : "0x056b23fbba480696b65fe5a59b8f2148a1299103c4f57df839233af2cf4ca2d2",
                    "runningVersion" : "0x00",
                    "s" : "0x15a6ef6a8445ce6e0fef22c245ac4c84fd1687d627a9df0f68ec14d1fd5caa95",
                    "stateRoot" : "0x599fee4441cbaa9ccd4de385b5d17c10eb087bd404747ba38984bf00a2ff45ae",
                    "timestamp" : "0x5a376727",
                    "transactionsTrie" : "0xda4ff51d21fb53978f91cc0bae0c01cfe4ed3485b999e4ef55d16441198223b5",
                    "uncleHash" : "0x1dcc4de8dec75d7aab85b567b6ccd41ad312451b948a7413f0a142fd40d49347",
                    "v" : "0x1b"
                },
                "blocknumber" : "1",
                "chainname" : "B",
                "rlp" : "0xf9027df90215a0e1cff7456e3ab95f375d80da33861a721d4ddb946b9331e779c1e6d820208874a01dcc4de8dec75d7aab85b567b6ccd41ad312451b948a7413f0a142fd40d49347942ecffd9dc5561bbdf23929a250bb99c758d64dbba0599fee4441cbaa9ccd4de385b5d17c10eb087bd404747ba38984bf00a2ff45aea0da4ff51d21fb53978f91cc0bae0c01cfe4ed3485b999e4ef55d16441198223b5a0056b23fbba480696b65fe5a59b8f2148a1299103c4f57df839233af2cf4ca2d2b90100000000000000000000000000000000000000000000000000000000000000000000000000000000000000000000000000000000000000000000000000000000000000000000000000000000000000000000000000000000000000000000000000000000000000000000000000000000000000000000000000000000000000000000000000000000000000000000000000000000000000000000000000000000000000000000000000000000000000000000000000000000000000000000000000000000000000000000000000000000000000000000000000000000000000000000000000000000000000000000000000000000000000000000000000000000008302000001832ffbd2825208845a376727808080801ba060d64c6c89f18c6299e847b804a2264be5c5237004f51a1a4d77d0edc727b18da015a6ef6a8445ce6e0fef22c245ac4c84fd1687d627a9df0f68ec14d1fd5caa95f862f86080018304cb2f94a95e7baea6a6c7c4c2dfeb977efac326af552d8764801ba08d9a64385e3a24e9f6fdd49256c9f7d23cd501deaa55c5b4283fc58b2a601039a02518fdccd38aa1caaf4b49c907f750961f325d3d70104a22700b16d9af0d0557c0",
                "transactions" : [
                    {
                        "data" : "",
                        "gasLimit" : "0x04cb2f",
                        "gasPrice" : "0x01",
                        "nonce" : "0x00",
                        "r" : "0x8d9a64385e3a24e9f6fdd49256c9f7d23cd501deaa55c5b4283fc58b2a601039",
                        "s" : "0x2518fdccd38aa1caaf4b49c907f750961f325d3d70104a22700b16d9af0d0557",
                        "to" : "0xa95e7baea6a6c7c4c2dfeb977efac326af552d87",
                        "v" : "0x1b",
                        "value" : "0x64"
                    }
                ],
                "uncleHeaders" : [
                ]
            },
            {
                "blockHeader" : {
                    "bloom" : "0x00000000000000000000000000000000000000000000000000000000000000000000000000000000000000000000000000000000000000000000000000000000000000000000000000000000000000000000000000000000000000000000000000000000000000000000000000000000000000000000000000000000000000000000000000000000000000000000000000000000000000000000000000000000000000000000000000000000000000000000000000000000000000000000000000000000000000000000000000000000000000000000000000000000000000000000000000000000000000000000000000000000000000000000000000000000",
                    "coinbase" : "0x5c30b1688bf9b515f268debf6e286c36dd1e1af3",
                    "difficulty" : "0x020000",
                    "extraData" : "",
                    "gasLimit" : "0x3007cf",
                    "gasUsed" : "0x5208",
                    "genesisTime" : "0x00",
                    "hardforkVersion" : "0x00",
                    "hash" : "0x70b68219fa367eecd341991d7167ab6dee138506ef1a1ea11a6bb81c3acafc60",
                    "number" : "0x02",
                    "parentHash" : "0xbc8449493d00f2906630bdf0c6faa419343772027bd1d5f01fe55d78035d3675",
                    "r" : "0x500a914ce73d32e65dde228d5349588230f5b241d00a4d07406a167f1dd36976",
                    "receiptTrie" : "0x056b23fbba480696b65fe5a59b8f2148a1299103c4f57df839233af2cf4ca2d2",
                    "runningVersion" : "0x00",
                    "s" : "0x6fd8c6448118b0ce1caffc2423ebc61792c8eba8429f2414e45e2bcd112be6c3",
                    "stateRoot" : "0x14fbebc9d0c01ff975e88e7e8772b17788a6e9e20c7f2b0230f5f886d34fa1a4",
                    "timestamp" : "0x5a376728",
                    "transactionsTrie" : "0x7d90b54544a650e638e06d360a7dc2eee226c40373df61476b792ca3eccae35b",
                    "uncleHash" : "0x1dcc4de8dec75d7aab85b567b6ccd41ad312451b948a7413f0a142fd40d49347",
                    "v" : "0x1c"
                },
                "blocknumber" : "2",
                "chainname" : "B",
                "rlp" : "0xf9027df90215a0bc8449493d00f2906630bdf0c6faa419343772027bd1d5f01fe55d78035d3675a01dcc4de8dec75d7aab85b567b6ccd41ad312451b948a7413f0a142fd40d49347945c30b1688bf9b515f268debf6e286c36dd1e1af3a014fbebc9d0c01ff975e88e7e8772b17788a6e9e20c7f2b0230f5f886d34fa1a4a07d90b54544a650e638e06d360a7dc2eee226c40373df61476b792ca3eccae35ba0056b23fbba480696b65fe5a59b8f2148a1299103c4f57df839233af2cf4ca2d2b90100000000000000000000000000000000000000000000000000000000000000000000000000000000000000000000000000000000000000000000000000000000000000000000000000000000000000000000000000000000000000000000000000000000000000000000000000000000000000000000000000000000000000000000000000000000000000000000000000000000000000000000000000000000000000000000000000000000000000000000000000000000000000000000000000000000000000000000000000000000000000000000000000000000000000000000000000000000000000000000000000000000000000000000000000000000008302000002833007cf825208845a376728808080801ca0500a914ce73d32e65dde228d5349588230f5b241d00a4d07406a167f1dd36976a06fd8c6448118b0ce1caffc2423ebc61792c8eba8429f2414e45e2bcd112be6c3f862f86001018304bb2b94095e7baea6a6c7c4c2dfeb977efac326af552d8764801ca0b66e1a2ee26689bdbb87af26141f167ded19e6b2041407bf4f80a36ce30a1b1ba0084e5def3deddc4ba0bd7dd8cebf184a8c3a3c2d5d9af5cb642bdf819d2e0be4c0",
                "transactions" : [
                    {
                        "data" : "",
                        "gasLimit" : "0x04bb2b",
                        "gasPrice" : "0x01",
                        "nonce" : "0x01",
                        "r" : "0xb66e1a2ee26689bdbb87af26141f167ded19e6b2041407bf4f80a36ce30a1b1b",
                        "s" : "0x084e5def3deddc4ba0bd7dd8cebf184a8c3a3c2d5d9af5cb642bdf819d2e0be4",
                        "to" : "0x095e7baea6a6c7c4c2dfeb977efac326af552d87",
                        "v" : "0x1c",
                        "value" : "0x64"
                    }
                ],
                "uncleHeaders" : [
                ]
            },
            {
                "blockHeader" : {
                    "bloom" : "0x00000000000000000000000000000000000000000000000000000000000000000000000000000000000000000000000000000000000000000000000000000000000000000000000000000000000000000000000000000000000000000000000000000000000000000000000000000000000000000000000000000000000000000000000000000000000000000000000000000000000000000000000000000000000000000000000000000000000000000000000000000000000000000000000000000000000000000000000000000000000000000000000000000000000000000000000000000000000000000000000000000000000000000000000000000000",
                    "coinbase" : "0xfc9f39081b56b1612acbbf0bdfb350b53fae11d7",
                    "difficulty" : "0x020040",
                    "extraData" : "",
                    "gasLimit" : "0x3013cf",
                    "gasUsed" : "0xa520",
                    "genesisTime" : "0x00",
                    "hardforkVersion" : "0x00",
                    "hash" : "0xcd77943cc99b746aa38a7dd389800736d62f289a8ee8173f90a172bcaf3803c9",
                    "number" : "0x03",
                    "parentHash" : "0x70b68219fa367eecd341991d7167ab6dee138506ef1a1ea11a6bb81c3acafc60",
                    "r" : "0x76f24c1e10a4f8cfad2b7e4fd3301e1d657a385292ef0c28f1015d99378655a0",
                    "receiptTrie" : "0x39da0d15ee87f85a60f7f4e9a13a177a8f81d3734cf3f2f2279b4bf25b12457c",
                    "runningVersion" : "0x00",
                    "s" : "0x713fe5273b6491f6aeee49386a5156ea7d0624e1cc63332ff9eecee3ecfe5242",
                    "stateRoot" : "0x07180e58789678fa375f357a8ef0cec1644d0d6288023e3a56150945f5f1de7a",
                    "timestamp" : "0x5a37672c",
                    "transactionsTrie" : "0xdc4835e461e554b15b7cff146b8f5e4790884dc5b95ba55dcdb9413324e8e9d1",
                    "uncleHash" : "0x1dcc4de8dec75d7aab85b567b6ccd41ad312451b948a7413f0a142fd40d49347",
                    "v" : "0x1b"
                },
                "blocknumber" : "3",
                "chainname" : "B",
                "rlp" : "0xf902e3f90215a070b68219fa367eecd341991d7167ab6dee138506ef1a1ea11a6bb81c3acafc60a01dcc4de8dec75d7aab85b567b6ccd41ad312451b948a7413f0a142fd40d4934794fc9f39081b56b1612acbbf0bdfb350b53fae11d7a007180e58789678fa375f357a8ef0cec1644d0d6288023e3a56150945f5f1de7aa0dc4835e461e554b15b7cff146b8f5e4790884dc5b95ba55dcdb9413324e8e9d1a039da0d15ee87f85a60f7f4e9a13a177a8f81d3734cf3f2f2279b4bf25b12457cb90100000000000000000000000000000000000000000000000000000000000000000000000000000000000000000000000000000000000000000000000000000000000000000000000000000000000000000000000000000000000000000000000000000000000000000000000000000000000000000000000000000000000000000000000000000000000000000000000000000000000000000000000000000000000000000000000000000000000000000000000000000000000000000000000000000000000000000000000000000000000000000000000000000000000000000000000000000000000000000000000000000000000000000000000000000000008302004003833013cf82a520845a37672c808080801ba076f24c1e10a4f8cfad2b7e4fd3301e1d657a385292ef0c28f1015d99378655a0a0713fe5273b6491f6aeee49386a5156ea7d0624e1cc63332ff9eecee3ecfe5242f8c8f86402018304bced94a95e7baea6a6c7c4c2dfeb977efac326af552d876484345345401ca001b915c97ee89b7016ee84e5466b4cd53977ace84e8dd3e9030652862e722ea9a0367362887662049d155f976aedec5a5c4083b88bb0761b889ef8961f83fc6493f86003018304bced94095e7baea6a6c7c4c2dfeb977efac326af552d8714801ca0f744123591e70b1daa1c642f5d229b1aff459c3fc3e14bb883cc3963b3baefafa079a36255b16361f7c101ed3144f1f97308731ddffa6dab8c3304918d6b937007c0",
                "transactions" : [
                    {
                        "data" : "0x34534540",
                        "gasLimit" : "0x04bced",
                        "gasPrice" : "0x01",
                        "nonce" : "0x02",
                        "r" : "0x01b915c97ee89b7016ee84e5466b4cd53977ace84e8dd3e9030652862e722ea9",
                        "s" : "0x367362887662049d155f976aedec5a5c4083b88bb0761b889ef8961f83fc6493",
                        "to" : "0xa95e7baea6a6c7c4c2dfeb977efac326af552d87",
                        "v" : "0x1c",
                        "value" : "0x64"
                    },
                    {
                        "data" : "",
                        "gasLimit" : "0x04bced",
                        "gasPrice" : "0x01",
                        "nonce" : "0x03",
                        "r" : "0xf744123591e70b1daa1c642f5d229b1aff459c3fc3e14bb883cc3963b3baefaf",
                        "s" : "0x79a36255b16361f7c101ed3144f1f97308731ddffa6dab8c3304918d6b937007",
                        "to" : "0x095e7baea6a6c7c4c2dfeb977efac326af552d87",
                        "v" : "0x1c",
                        "value" : "0x14"
                    }
                ],
                "uncleHeaders" : [
                ]
            },
            {
                "blockHeader" : {
                    "bloom" : "0x00000000000000000000000000000000000000000000000000000000000000000000000000000000000000000000000000000000000000000000000000000000000000000000000000000000000000000000000000000000000000000000000000000000000000000000000000000000000000000000000000000000000000000000000000000000000000000000000000000000000000000000000000000000000000000000000000000000000000000000000000000000000000000000000000000000000000000000000000000000000000000000000000000000000000000000000000000000000000000000000000000000000000000000000000000000",
                    "coinbase" : "0xd4ad13effbb688e77930431a24fd296b71d6c1c9",
                    "difficulty" : "0x020000",
                    "extraData" : "",
                    "gasLimit" : "0x301fd2",
                    "gasUsed" : "0x00",
                    "genesisTime" : "0x00",
                    "hardforkVersion" : "0x00",
                    "hash" : "0xa410e87d3fbd3185f38bf57e4139535ac1f482b1423cf24b3771880ab1b967ed",
                    "number" : "0x04",
                    "parentHash" : "0xcd77943cc99b746aa38a7dd389800736d62f289a8ee8173f90a172bcaf3803c9",
                    "r" : "0x16893e106b30509055a1402b396e08fe4a3e73c3d861024c964bea2bcbbe9d95",
                    "receiptTrie" : "0x56e81f171bcc55a6ff8345e692c0f86e5b48e01b996cadc001622fb5e363b421",
                    "runningVersion" : "0x00",
                    "s" : "0x3010a76605a156904811c9658e7c7902c59748de3e2c2b6e4894edac59f30dac",
                    "stateRoot" : "0xdf4058d220cc262e2ce08d02a857e1655146efbc1df1f8c9eeae76cc838e7d50",
                    "timestamp" : "0x5a37672e",
                    "transactionsTrie" : "0x56e81f171bcc55a6ff8345e692c0f86e5b48e01b996cadc001622fb5e363b421",
                    "uncleHash" : "0x1dcc4de8dec75d7aab85b567b6ccd41ad312451b948a7413f0a142fd40d49347",
                    "v" : "0x1b"
                },
                "blocknumber" : "4",
                "chainname" : "B",
                "rlp" : "0xf90218f90213a0cd77943cc99b746aa38a7dd389800736d62f289a8ee8173f90a172bcaf3803c9a01dcc4de8dec75d7aab85b567b6ccd41ad312451b948a7413f0a142fd40d4934794d4ad13effbb688e77930431a24fd296b71d6c1c9a0df4058d220cc262e2ce08d02a857e1655146efbc1df1f8c9eeae76cc838e7d50a056e81f171bcc55a6ff8345e692c0f86e5b48e01b996cadc001622fb5e363b421a056e81f171bcc55a6ff8345e692c0f86e5b48e01b996cadc001622fb5e363b421b9010000000000000000000000000000000000000000000000000000000000000000000000000000000000000000000000000000000000000000000000000000000000000000000000000000000000000000000000000000000000000000000000000000000000000000000000000000000000000000000000000000000000000000000000000000000000000000000000000000000000000000000000000000000000000000000000000000000000000000000000000000000000000000000000000000000000000000000000000000000000000000000000000000000000000000000000000000000000000000000000000000000000000000000000000000000000830200000483301fd280845a37672e808080801ba016893e106b30509055a1402b396e08fe4a3e73c3d861024c964bea2bcbbe9d95a03010a76605a156904811c9658e7c7902c59748de3e2c2b6e4894edac59f30dacc0c0",
                "transactions" : [
                ],
                "uncleHeaders" : [
                ]
            }
        ],
        "genesisBlockHeader" : {
            "bloom" : "0x00000000000000000000000000000000000000000000000000000000000000000000000000000000000000000000000000000000000000000000000000000000000000000000000000000000000000000000000000000000000000000000000000000000000000000000000000000000000000000000000000000000000000000000000000000000000000000000000000000000000000000000000000000000000000000000000000000000000000000000000000000000000000000000000000000000000000000000000000000000000000000000000000000000000000000000000000000000000000000000000000000000000000000000000000000000",
            "coinbase" : "0x8888f1f195afa192cfee860698584c030f4c9db1",
            "difficulty" : "0x020000",
            "extraData" : "0x42",
            "gasLimit" : "0x2fefd8",
            "gasUsed" : "0x00",
            "genesisTime" : "0x00",
            "hardforkVersion" : "0x00",
            "hash" : "0xe1cff7456e3ab95f375d80da33861a721d4ddb946b9331e779c1e6d820208874",
            "number" : "0x00",
            "parentHash" : "0x0000000000000000000000000000000000000000000000000000000000000000",
            "r" : "0x00",
            "receiptTrie" : "0x56e81f171bcc55a6ff8345e692c0f86e5b48e01b996cadc001622fb5e363b421",
            "runningVersion" : "0x00",
            "s" : "0x00",
            "stateRoot" : "0xa3bf1d8f77b5f50762ebc361f1421d7d81621d0f709d3b3b9b2ce9e94a9352d9",
            "timestamp" : "0x54c98c81",
            "transactionsTrie" : "0x56e81f171bcc55a6ff8345e692c0f86e5b48e01b996cadc001622fb5e363b421",
            "uncleHash" : "0x1dcc4de8dec75d7aab85b567b6ccd41ad312451b948a7413f0a142fd40d49347",
            "v" : "0x1b"
        },
        "genesisRLP" : "0xf901d8f901d3a00000000000000000000000000000000000000000000000000000000000000000a01dcc4de8dec75d7aab85b567b6ccd41ad312451b948a7413f0a142fd40d49347948888f1f195afa192cfee860698584c030f4c9db1a0a3bf1d8f77b5f50762ebc361f1421d7d81621d0f709d3b3b9b2ce9e94a9352d9a056e81f171bcc55a6ff8345e692c0f86e5b48e01b996cadc001622fb5e363b421a056e81f171bcc55a6ff8345e692c0f86e5b48e01b996cadc001622fb5e363b421b90100000000000000000000000000000000000000000000000000000000000000000000000000000000000000000000000000000000000000000000000000000000000000000000000000000000000000000000000000000000000000000000000000000000000000000000000000000000000000000000000000000000000000000000000000000000000000000000000000000000000000000000000000000000000000000000000000000000000000000000000000000000000000000000000000000000000000000000000000000000000000000000000000000000000000000000000000000000000000000000000000000000000000000000000000000000008302000080832fefd8808454c98c81428080801b8080c0c0",
        "lastblockhash" : "0xa410e87d3fbd3185f38bf57e4139535ac1f482b1423cf24b3771880ab1b967ed",
        "network" : "Frontier",
        "postState" : {
            "0x095e7baea6a6c7c4c2dfeb977efac326af552d87" : {
                "balance" : "0x09184e72a078",
                "code" : "",
                "nonce" : "0x00",
                "storage" : {
                }
            },
            "0x2ecffd9dc5561bbdf23929a250bb99c758d64dbb" : {
                "balance" : "0x4563918244f45208",
                "code" : "",
                "nonce" : "0x00",
                "storage" : {
                }
            },
            "0x5c30b1688bf9b515f268debf6e286c36dd1e1af3" : {
                "balance" : "0x4563918244f45208",
                "code" : "",
                "nonce" : "0x00",
                "storage" : {
                }
            },
            "0xa94f5374fce5edbc8e2a8697c15331677e6ebf0b" : {
                "balance" : "0x09184e715590",
                "code" : "",
                "nonce" : "0x04",
                "storage" : {
                }
            },
            "0xa95e7baea6a6c7c4c2dfeb977efac326af552d87" : {
                "balance" : "0xc8",
                "code" : "",
                "nonce" : "0x00",
                "storage" : {
                }
            },
            "0xd4ad13effbb688e77930431a24fd296b71d6c1c9" : {
                "balance" : "0x4563918244f40000",
                "code" : "",
                "nonce" : "0x00",
                "storage" : {
                }
            },
            "0xfc9f39081b56b1612acbbf0bdfb350b53fae11d7" : {
                "balance" : "0x4563918244f4a520",
                "code" : "",
                "nonce" : "0x00",
                "storage" : {
                }
            }
        },
        "pre" : {
            "0x095e7baea6a6c7c4c2dfeb977efac326af552d87" : {
                "balance" : "0x09184e72a000",
                "code" : "",
                "nonce" : "0x00",
                "storage" : {
                }
            },
            "0xa94f5374fce5edbc8e2a8697c15331677e6ebf0b" : {
                "balance" : "0x09184e72a000",
                "code" : "",
                "nonce" : "0x00",
                "storage" : {
                }
            }
        }
    }
}