{
    "ChainAtoChainBCallContractFormA_Frontier" : {
        "_info" : {
            "comment" : "",
            "filledwith" : "cpp-1.3.0+commit.19890075.Windows.msvc",
            "lllcversion" : "Error getting LLLC Version",
            "source" : "src\\BlockchainTestsFiller\\bcMultiChainTest\\ChainAtoChainBCallContractFormAFiller.json",
            "sourceHash" : "70b721dc811eff617a55977306541c303fbc0a4772911baf60272084f8d17264"
        },
        "blocks" : [
            {
                "blockHeader" : {
                    "bloom" : "0x00000000000000000000000000000000000000000000000000000000000000000000000000000000000000000000000000000000000000000000000000000000000000000000000000000000000000000000000000000000000000000000000000000000000000000000000000000000000000000000000000000000000000000000000000000000000000000000000000000000000000000000000000000000000000000000000000000000000000000000000000000000000000000000000000000000000000000000000000000000000000000000000000000000000000000000000000000000000000000000000000000000000000000000000000000000",
                    "coinbase" : "0x2ecffd9dc5561bbdf23929a250bb99c758d64dbb",
                    "difficulty" : "0x020000",
                    "extraData" : "",
                    "gasLimit" : "0x2ffbd2",
                    "gasUsed" : "0x5208",
                    "genesisTime" : "0x00",
                    "hardforkVersion" : "0x00",
                    "hash" : "0x741fd447d8877261df8a548631c003a141de22964bf490263e08369f7ffade26",
                    "number" : "0x01",
                    "parentHash" : "0x408968efa704f9c2a7ba35db351ee545e3dab0a1b7856a7681d1d9149c9190a2",
                    "r" : "0xf5332b1656691419959cb8acdeef8563b8d5cd21b205f9d2864feb4b445651f8",
                    "receiptTrie" : "0x056b23fbba480696b65fe5a59b8f2148a1299103c4f57df839233af2cf4ca2d2",
                    "runningVersion" : "0x00",
                    "s" : "0x6ebfc519ca3e4b23a29219d52a787d944bc833a2523335598c52a868f8175a9f",
                    "stateRoot" : "0x232cf4b48d74bca803a2d28a959c22403f1954452ef269d6e9db288fe7e951dc",
                    "timestamp" : "0x5a376727",
                    "transactionsTrie" : "0x5c9151c2413d1cd25c51ffb4ac38948acc1359bf08c6b49f283660e9bcf0f516",
                    "uncleHash" : "0x1dcc4de8dec75d7aab85b567b6ccd41ad312451b948a7413f0a142fd40d49347",
                    "v" : "0x1b"
                },
                "blocknumber" : "1",
                "chainname" : "A",
                "rlp" : "0xf9027df90215a0408968efa704f9c2a7ba35db351ee545e3dab0a1b7856a7681d1d9149c9190a2a01dcc4de8dec75d7aab85b567b6ccd41ad312451b948a7413f0a142fd40d49347942ecffd9dc5561bbdf23929a250bb99c758d64dbba0232cf4b48d74bca803a2d28a959c22403f1954452ef269d6e9db288fe7e951dca05c9151c2413d1cd25c51ffb4ac38948acc1359bf08c6b49f283660e9bcf0f516a0056b23fbba480696b65fe5a59b8f2148a1299103c4f57df839233af2cf4ca2d2b90100000000000000000000000000000000000000000000000000000000000000000000000000000000000000000000000000000000000000000000000000000000000000000000000000000000000000000000000000000000000000000000000000000000000000000000000000000000000000000000000000000000000000000000000000000000000000000000000000000000000000000000000000000000000000000000000000000000000000000000000000000000000000000000000000000000000000000000000000000000000000000000000000000000000000000000000000000000000000000000000000000000000000000000000000000000008302000001832ffbd2825208845a376727808080801ba0f5332b1656691419959cb8acdeef8563b8d5cd21b205f9d2864feb4b445651f8a06ebfc519ca3e4b23a29219d52a787d944bc833a2523335598c52a868f8175a9ff862f86080018304cb2f94095e7baea6a6c7c4c2dfeb977efac326af552d870a801ba077c7cd36820c71821c1aed59de46e70e701c4a8dd89c9ba508ab722210f60da8a03f29825d40c7c3f7bff3ca69267e0f3fb74b2d18b8c2c4e3c135b5d3b06e288dc0",
                "transactions" : [
                    {
                        "data" : "",
                        "gasLimit" : "0x04cb2f",
                        "gasPrice" : "0x01",
                        "nonce" : "0x00",
                        "r" : "0x77c7cd36820c71821c1aed59de46e70e701c4a8dd89c9ba508ab722210f60da8",
                        "s" : "0x3f29825d40c7c3f7bff3ca69267e0f3fb74b2d18b8c2c4e3c135b5d3b06e288d",
                        "to" : "0x095e7baea6a6c7c4c2dfeb977efac326af552d87",
                        "v" : "0x1b",
                        "value" : "0x0a"
                    }
                ],
                "uncleHeaders" : [
                ]
            },
            {
                "blockHeader" : {
                    "bloom" : "0x00000000000000000000000000000000000000000000000000000000000000000000000000000000000000000000000000000000000000000000000000000000000000000000000000000000000000000000000000000000000000000000000000000000000000000000000000000000000000000000000000000000000000000000000000000000000000000000000000000000000000000000000000000000000000000000000000000000000000000000000000000000000000000000000000000000000000000000000000000000000000000000000000000000000000000000000000000000000000000000000000000000000000000000000000000000",
                    "coinbase" : "0x5c30b1688bf9b515f268debf6e286c36dd1e1af3",
                    "difficulty" : "0x020000",
                    "extraData" : "",
                    "gasLimit" : "0x3007cf",
                    "gasUsed" : "0x04cb2f",
                    "genesisTime" : "0x00",
                    "hardforkVersion" : "0x00",
                    "hash" : "0x7033db8f48f60f845818eef9f7ce9e4473d17c6b4442d4f3921f2a9b88cdd8f1",
                    "number" : "0x02",
                    "parentHash" : "0x741fd447d8877261df8a548631c003a141de22964bf490263e08369f7ffade26",
                    "r" : "0x5979b1426f87c3992226123a3807913f665b1d97894fb5ff76496e686c49d9f1",
                    "receiptTrie" : "0x9f9fff4a5908c5e42ee5c75b99ed3f2fdf7c94e7f6dc9ef1ab642a0c84fc44b2",
                    "runningVersion" : "0x00",
                    "s" : "0x72366e7b04be9433230d2aeebf9bf0c49b950b0f27ab58032d0c10412b1c1f57",
                    "stateRoot" : "0xe6374d92f280ff7e4707aee1fff01091bbb6c05302568adc8a7fb3c683244440",
                    "timestamp" : "0x5a376728",
                    "transactionsTrie" : "0x73605c813df801dea03161bc2f66993a59f86babc47efa9d0e952bc79a26fabd",
                    "uncleHash" : "0x1dcc4de8dec75d7aab85b567b6ccd41ad312451b948a7413f0a142fd40d49347",
                    "v" : "0x1c"
                },
                "blocknumber" : "2",
                "chainname" : "A",
                "rlp" : "0xf902e9f90216a0741fd447d8877261df8a548631c003a141de22964bf490263e08369f7ffade26a01dcc4de8dec75d7aab85b567b6ccd41ad312451b948a7413f0a142fd40d49347945c30b1688bf9b515f268debf6e286c36dd1e1af3a0e6374d92f280ff7e4707aee1fff01091bbb6c05302568adc8a7fb3c683244440a073605c813df801dea03161bc2f66993a59f86babc47efa9d0e952bc79a26fabda09f9fff4a5908c5e42ee5c75b99ed3f2fdf7c94e7f6dc9ef1ab642a0c84fc44b2b90100000000000000000000000000000000000000000000000000000000000000000000000000000000000000000000000000000000000000000000000000000000000000000000000000000000000000000000000000000000000000000000000000000000000000000000000000000000000000000000000000000000000000000000000000000000000000000000000000000000000000000000000000000000000000000000000000000000000000000000000000000000000000000000000000000000000000000000000000000000000000000000000000000000000000000000000000000000000000000000000000000000000000000000000000000000008302000002833007cf8304cb2f845a376728808080801ca05979b1426f87c3992226123a3807913f665b1d97894fb5ff76496e686c49d9f1a072366e7b04be9433230d2aeebf9bf0c49b950b0f27ab58032d0c10412b1c1f57f8cdf8cb01018304cb2f8080b87e6060604052606e8060106000396000f360606040526000357c010000000000000000000000000000000000000000000000000000000090048063c0406226146037576035565b005b60406004506056565b6040518082815260200191505060405180910390f35b6000600560006000508190555060059050606b565b90561ca0b5a59222c12d3a9d52fddef1c7881a0dc7e72f5aed83be3cd7d7fdf868ec92a2a0551fea14e12dc99b6d78884bf5f0edae2da6ad4102d955057251d5d2aa8f54a5c0",
                "transactions" : [
                    {
                        "data" : "0x6060604052606e8060106000396000f360606040526000357c010000000000000000000000000000000000000000000000000000000090048063c0406226146037576035565b005b60406004506056565b6040518082815260200191505060405180910390f35b6000600560006000508190555060059050606b565b9056",
                        "gasLimit" : "0x04cb2f",
                        "gasPrice" : "0x01",
                        "nonce" : "0x01",
                        "r" : "0xb5a59222c12d3a9d52fddef1c7881a0dc7e72f5aed83be3cd7d7fdf868ec92a2",
                        "s" : "0x551fea14e12dc99b6d78884bf5f0edae2da6ad4102d955057251d5d2aa8f54a5",
                        "to" : "",
                        "v" : "0x1c",
                        "value" : "0x00"
                    }
                ],
                "uncleHeaders" : [
                ]
            },
            {
                "blockHeader" : {
                    "bloom" : "0x00000000000000000000000000000000000000000000000000000000000000000000000000000000000000000000000000000000000000000000000000000000000000000000000000000000000000000000000000000000000000000000000000000000000000000000000000000000000000000000000000000000000000000000000000000000000000000000000000000000000000000000000000000000000000000000000000000000000000000000000000000000000000000000000000000000000000000000000000000000000000000000000000000000000000000000000000000000000000000000000000000000000000000000000000000000",
                    "coinbase" : "0xfc9f39081b56b1612acbbf0bdfb350b53fae11d7",
                    "difficulty" : "0x020000",
                    "extraData" : "",
                    "gasLimit" : "0x3013cf",
                    "gasUsed" : "0x5318",
                    "genesisTime" : "0x00",
                    "hardforkVersion" : "0x00",
                    "hash" : "0x049145f36504bc5b137de17a0fb955d5fef83b99d55a71e6ff3843193af7655e",
                    "number" : "0x03",
                    "parentHash" : "0x7033db8f48f60f845818eef9f7ce9e4473d17c6b4442d4f3921f2a9b88cdd8f1",
                    "r" : "0xfde8d5845acf49b20fbc8fc5929c0b5c710eadc61ff9565e35f9870d28a0163c",
                    "receiptTrie" : "0x24690914c0b962fe99977f721c628b5eb0cd400e4e2a38093cc1f1104418e406",
                    "runningVersion" : "0x00",
                    "s" : "0x3e1f52c029e2f98a5b91ca70ae66d896865182b54fc6906e63ae0ce0aabbdfb2",
                    "stateRoot" : "0x99d6912b9e2f54a9e6a0cc4aaa562a9a3272dcdaf63ee2cf2ff750db51c33029",
                    "timestamp" : "0x5a37672b",
                    "transactionsTrie" : "0x9c858c8136eab078bee6f5662d1efc4efb2ea41ceaa4a2fa70867ba34b6a8c5f",
                    "uncleHash" : "0x1dcc4de8dec75d7aab85b567b6ccd41ad312451b948a7413f0a142fd40d49347",
                    "v" : "0x1b"
                },
                "blocknumber" : "3",
                "chainname" : "A",
                "rlp" : "0xf90281f90215a07033db8f48f60f845818eef9f7ce9e4473d17c6b4442d4f3921f2a9b88cdd8f1a01dcc4de8dec75d7aab85b567b6ccd41ad312451b948a7413f0a142fd40d4934794fc9f39081b56b1612acbbf0bdfb350b53fae11d7a099d6912b9e2f54a9e6a0cc4aaa562a9a3272dcdaf63ee2cf2ff750db51c33029a09c858c8136eab078bee6f5662d1efc4efb2ea41ceaa4a2fa70867ba34b6a8c5fa024690914c0b962fe99977f721c628b5eb0cd400e4e2a38093cc1f1104418e406b90100000000000000000000000000000000000000000000000000000000000000000000000000000000000000000000000000000000000000000000000000000000000000000000000000000000000000000000000000000000000000000000000000000000000000000000000000000000000000000000000000000000000000000000000000000000000000000000000000000000000000000000000000000000000000000000000000000000000000000000000000000000000000000000000000000000000000000000000000000000000000000000000000000000000000000000000000000000000000000000000000000000000000000000000000000000008302000003833013cf825318845a37672b808080801ba0fde8d5845acf49b20fbc8fc5929c0b5c710eadc61ff9565e35f9870d28a0163ca03e1f52c029e2f98a5b91ca70ae66d896865182b54fc6906e63ae0ce0aabbdfb2f866f86402018304cb2f94ec0e71ad0a90ffe1909d27dac207f7680abba42d0184c04062261ba03b9f04ff34e1e3724d8b3e4582a18bdb01b9c2c7ec24cde6fbc20759398982d7a02d16728009bc65da5795e4d429dee397aedbc7b0c3238a48883eea7d377a08adc0",
                "transactions" : [
                    {
                        "data" : "0xc0406226",
                        "gasLimit" : "0x04cb2f",
                        "gasPrice" : "0x01",
                        "nonce" : "0x02",
                        "r" : "0x3b9f04ff34e1e3724d8b3e4582a18bdb01b9c2c7ec24cde6fbc20759398982d7",
                        "s" : "0x2d16728009bc65da5795e4d429dee397aedbc7b0c3238a48883eea7d377a08ad",
                        "to" : "0xec0e71ad0a90ffe1909d27dac207f7680abba42d",
                        "v" : "0x1b",
                        "value" : "0x01"
                    }
                ],
                "uncleHeaders" : [
                ]
            },
            {
                "blockHeader" : {
                    "bloom" : "0x00000000000000000000000000000000000000000000000000000000000000000000000000000000000000000000000000000000000000000000000000000000000000000000000000000000000000000000000000000000000000000000000000000000000000000000000000000000000000000000000000000000000000000000000000000000000000000000000000000000000000000000000000000000000000000000000000000000000000000000000000000000000000000000000000000000000000000000000000000000000000000000000000000000000000000000000000000000000000000000000000000000000000000000000000000000",
                    "coinbase" : "0x2ecffd9dc5561bbdf23929a250bb99c758d64dbb",
                    "difficulty" : "0x020000",
                    "extraData" : "",
                    "gasLimit" : "0x2ffbd2",
                    "gasUsed" : "0x5208",
                    "genesisTime" : "0x00",
                    "hardforkVersion" : "0x00",
                    "hash" : "0x31fb186133d561894ff2f5aaca5d4c23146014404ad56ae72c814889c2bc71dc",
                    "number" : "0x01",
                    "parentHash" : "0x408968efa704f9c2a7ba35db351ee545e3dab0a1b7856a7681d1d9149c9190a2",
                    "r" : "0x6877bbcc7de3e08764eaf8b5010aa992e710a16b0219efb9a96e3b01619030cb",
                    "receiptTrie" : "0x056b23fbba480696b65fe5a59b8f2148a1299103c4f57df839233af2cf4ca2d2",
                    "runningVersion" : "0x00",
                    "s" : "0x2723cf891dc967b66d5ae20dc2e24d1a4450aa6b67483f89b0282799a312b655",
                    "stateRoot" : "0xf827cb5a56e66260c619d3cd20e0cdc7ae701d52ee6300b2a98b02ef553287e5",
                    "timestamp" : "0x5a376727",
                    "transactionsTrie" : "0x89176230d5c4ac60168e999c7a9fbea712992e712c253d635601a9d625c640fa",
                    "uncleHash" : "0x1dcc4de8dec75d7aab85b567b6ccd41ad312451b948a7413f0a142fd40d49347",
                    "v" : "0x1c"
                },
                "blocknumber" : "1",
                "chainname" : "B",
                "rlp" : "0xf9027df90215a0408968efa704f9c2a7ba35db351ee545e3dab0a1b7856a7681d1d9149c9190a2a01dcc4de8dec75d7aab85b567b6ccd41ad312451b948a7413f0a142fd40d49347942ecffd9dc5561bbdf23929a250bb99c758d64dbba0f827cb5a56e66260c619d3cd20e0cdc7ae701d52ee6300b2a98b02ef553287e5a089176230d5c4ac60168e999c7a9fbea712992e712c253d635601a9d625c640faa0056b23fbba480696b65fe5a59b8f2148a1299103c4f57df839233af2cf4ca2d2b90100000000000000000000000000000000000000000000000000000000000000000000000000000000000000000000000000000000000000000000000000000000000000000000000000000000000000000000000000000000000000000000000000000000000000000000000000000000000000000000000000000000000000000000000000000000000000000000000000000000000000000000000000000000000000000000000000000000000000000000000000000000000000000000000000000000000000000000000000000000000000000000000000000000000000000000000000000000000000000000000000000000000000000000000000000000008302000001832ffbd2825208845a376727808080801ca06877bbcc7de3e08764eaf8b5010aa992e710a16b0219efb9a96e3b01619030cba02723cf891dc967b66d5ae20dc2e24d1a4450aa6b67483f89b0282799a312b655f862f86080018304cb2f94095e7baea6a6c7c4c2dfeb977efac326af552d8764801ca066995adf6b8ce265233fe0ef11b24f7571908674be85c347eed4359396cfa4b1a0458062325e034ea6722559f0153094069424c0d508b7b104f2635a52bfaaa532c0",
                "transactions" : [
                    {
                        "data" : "",
                        "gasLimit" : "0x04cb2f",
                        "gasPrice" : "0x01",
                        "nonce" : "0x00",
                        "r" : "0x66995adf6b8ce265233fe0ef11b24f7571908674be85c347eed4359396cfa4b1",
                        "s" : "0x458062325e034ea6722559f0153094069424c0d508b7b104f2635a52bfaaa532",
                        "to" : "0x095e7baea6a6c7c4c2dfeb977efac326af552d87",
                        "v" : "0x1c",
                        "value" : "0x64"
                    }
                ],
                "uncleHeaders" : [
                ]
            },
            {
                "blockHeader" : {
                    "bloom" : "0x00000000000000000000000000000000000000000000000000000000000000000000000000000000000000000000000000000000000000000000000000000000000000000000000000000000000000000000000000000000000000000000000000000000000000000000000000000000000000000000000000000000000000000000000000000000000000000000000000000000000000000000000000000000000000000000000000000000000000000000000000000000000000000000000000000000000000000000000000000000000000000000000000000000000000000000000000000000000000000000000000000000000000000000000000000000",
                    "coinbase" : "0x5c30b1688bf9b515f268debf6e286c36dd1e1af3",
                    "difficulty" : "0x020000",
                    "extraData" : "",
                    "gasLimit" : "0x3007cf",
                    "gasUsed" : "0x5208",
                    "genesisTime" : "0x00",
                    "hardforkVersion" : "0x00",
                    "hash" : "0x6dfa18afb9824211b0c5e83d6bba1c9500070e13fb71c8250f60bc54ad464e4c",
                    "number" : "0x02",
                    "parentHash" : "0x31fb186133d561894ff2f5aaca5d4c23146014404ad56ae72c814889c2bc71dc",
                    "r" : "0xc15b2d8475e782c87f7c377ad9972ee77b866fede624f9ad5573b42db84b310e",
                    "receiptTrie" : "0x056b23fbba480696b65fe5a59b8f2148a1299103c4f57df839233af2cf4ca2d2",
                    "runningVersion" : "0x00",
                    "s" : "0x05a0bbef87b47a3410beeb5699933e36817efd3dd9fc8f51315ef01b4ddafd2d",
                    "stateRoot" : "0xedec2831ca0afea977c0c0117e6f5ade5d810ab8639922859627524b10f22070",
                    "timestamp" : "0x5a376728",
                    "transactionsTrie" : "0x7322a6c669d75cf4eef8eea32991f58b54d874be9bdb69cc30aab3eb1efa0519",
                    "uncleHash" : "0x1dcc4de8dec75d7aab85b567b6ccd41ad312451b948a7413f0a142fd40d49347",
                    "v" : "0x1b"
                },
                "blocknumber" : "2",
                "chainname" : "B",
                "rlp" : "0xf9027cf90215a031fb186133d561894ff2f5aaca5d4c23146014404ad56ae72c814889c2bc71dca01dcc4de8dec75d7aab85b567b6ccd41ad312451b948a7413f0a142fd40d49347945c30b1688bf9b515f268debf6e286c36dd1e1af3a0edec2831ca0afea977c0c0117e6f5ade5d810ab8639922859627524b10f22070a07322a6c669d75cf4eef8eea32991f58b54d874be9bdb69cc30aab3eb1efa0519a0056b23fbba480696b65fe5a59b8f2148a1299103c4f57df839233af2cf4ca2d2b90100000000000000000000000000000000000000000000000000000000000000000000000000000000000000000000000000000000000000000000000000000000000000000000000000000000000000000000000000000000000000000000000000000000000000000000000000000000000000000000000000000000000000000000000000000000000000000000000000000000000000000000000000000000000000000000000000000000000000000000000000000000000000000000000000000000000000000000000000000000000000000000000000000000000000000000000000000000000000000000000000000000000000000000000000000000008302000002833007cf825208845a376728808080801ba0c15b2d8475e782c87f7c377ad9972ee77b866fede624f9ad5573b42db84b310ea005a0bbef87b47a3410beeb5699933e36817efd3dd9fc8f51315ef01b4ddafd2df861f85f010182795394ec0e71ad0a90ffe1909d27dac207f7680abba42d64801ba0520d98a0391575b2bec2e8404dd143eaeec125c5eb6aa93bc9bc7f16499fbb23a01b773ac3f48586b6e464ae84081081bd18313e0f8ea20e2ac4dfe18499f05addc0",
                "transactions" : [
                    {
                        "data" : "",
                        "gasLimit" : "0x7953",
                        "gasPrice" : "0x01",
                        "nonce" : "0x01",
                        "r" : "0x520d98a0391575b2bec2e8404dd143eaeec125c5eb6aa93bc9bc7f16499fbb23",
                        "s" : "0x1b773ac3f48586b6e464ae84081081bd18313e0f8ea20e2ac4dfe18499f05add",
                        "to" : "0xec0e71ad0a90ffe1909d27dac207f7680abba42d",
                        "v" : "0x1b",
                        "value" : "0x64"
                    }
                ],
                "uncleHeaders" : [
                ]
            },
            {
                "blockHeader" : {
                    "bloom" : "0x00000000000000000000000000000000000000000000000000000000000000000000000000000000000000000000000000000000000000000000000000000000000000000000000000000000000000000000000000000000000000000000000000000000000000000000000000000000000000000000000000000000000000000000000000000000000000000000000000000000000000000000000000000000000000000000000000000000000000000000000000000000000000000000000000000000000000000000000000000000000000000000000000000000000000000000000000000000000000000000000000000000000000000000000000000000",
                    "coinbase" : "0xfc9f39081b56b1612acbbf0bdfb350b53fae11d7",
                    "difficulty" : "0x020000",
                    "extraData" : "",
                    "gasLimit" : "0x3013cf",
                    "gasUsed" : "0xa630",
                    "genesisTime" : "0x00",
                    "hardforkVersion" : "0x00",
                    "hash" : "0x4143b77fa313517b738e1c04475d542f2684d2b0f2b6a8bc6f600557222de321",
                    "number" : "0x03",
                    "parentHash" : "0x6dfa18afb9824211b0c5e83d6bba1c9500070e13fb71c8250f60bc54ad464e4c",
                    "r" : "0x9a3b17bd3f5bdea4741f3ec268c4fd92f2c3b30fc02ea81000ea5c32a67b4e18",
                    "receiptTrie" : "0x767dbcd5c6723b314b4b5cb11afb81f538fe2139dfd547712b703f8432995a01",
                    "runningVersion" : "0x00",
                    "s" : "0x20123cbaf00c1d7f74846f85cf7c478120034de744c432b14c9347830ca7fd",
                    "stateRoot" : "0x1fa474d376b2d71b41b2893b17e5a901de8fbf411fd7f08b32cc2d6db7a71e74",
                    "timestamp" : "0x5a37672b",
                    "transactionsTrie" : "0xc736cbcf2498d7d04570566d0cc6c5be5d23733a7ae5e1df0d61643b766044df",
                    "uncleHash" : "0x1dcc4de8dec75d7aab85b567b6ccd41ad312451b948a7413f0a142fd40d49347",
                    "v" : "0x1c"
                },
                "blocknumber" : "3",
                "chainname" : "B",
                "rlp" : "0xf902e3f90214a06dfa18afb9824211b0c5e83d6bba1c9500070e13fb71c8250f60bc54ad464e4ca01dcc4de8dec75d7aab85b567b6ccd41ad312451b948a7413f0a142fd40d4934794fc9f39081b56b1612acbbf0bdfb350b53fae11d7a01fa474d376b2d71b41b2893b17e5a901de8fbf411fd7f08b32cc2d6db7a71e74a0c736cbcf2498d7d04570566d0cc6c5be5d23733a7ae5e1df0d61643b766044dfa0767dbcd5c6723b314b4b5cb11afb81f538fe2139dfd547712b703f8432995a01b90100000000000000000000000000000000000000000000000000000000000000000000000000000000000000000000000000000000000000000000000000000000000000000000000000000000000000000000000000000000000000000000000000000000000000000000000000000000000000000000000000000000000000000000000000000000000000000000000000000000000000000000000000000000000000000000000000000000000000000000000000000000000000000000000000000000000000000000000000000000000000000000000000000000000000000000000000000000000000000000000000000000000000000000000000000000008302000003833013cf82a630845a37672b808080801ca09a3b17bd3f5bdea4741f3ec268c4fd92f2c3b30fc02ea81000ea5c32a67b4e189f20123cbaf00c1d7f74846f85cf7c478120034de744c432b14c9347830ca7fdf8c9f8630201827b1594095e7baea6a6c7c4c2dfeb977efac326af552d876484345345401ba0c912adcf452d35df5a1f79eaf137953512e39a643d44c25419acb9526baf1913a04d4529643671cfa998a7fb0ed28618f822d4141cee5796e43badf52cb46f435cf8620301827b1594ec0e71ad0a90ffe1909d27dac207f7680abba42d1484c04062261ba0ec0a1117ee6a01860b6318a782b36127f809a760d24db64b3791147d15dbff879fe80e8a90c3dd4a0463f85d6fb821267c427db9dfc6e6db8f2a627979937f39c0",
                "transactions" : [
                    {
                        "data" : "0x34534540",
                        "gasLimit" : "0x7b15",
                        "gasPrice" : "0x01",
                        "nonce" : "0x02",
                        "r" : "0xc912adcf452d35df5a1f79eaf137953512e39a643d44c25419acb9526baf1913",
                        "s" : "0x4d4529643671cfa998a7fb0ed28618f822d4141cee5796e43badf52cb46f435c",
                        "to" : "0x095e7baea6a6c7c4c2dfeb977efac326af552d87",
                        "v" : "0x1b",
                        "value" : "0x64"
                    },
                    {
                        "data" : "0xc0406226",
                        "gasLimit" : "0x7b15",
                        "gasPrice" : "0x01",
                        "nonce" : "0x03",
                        "r" : "0xec0a1117ee6a01860b6318a782b36127f809a760d24db64b3791147d15dbff87",
                        "s" : "0xe80e8a90c3dd4a0463f85d6fb821267c427db9dfc6e6db8f2a627979937f39",
                        "to" : "0xec0e71ad0a90ffe1909d27dac207f7680abba42d",
                        "v" : "0x1b",
                        "value" : "0x14"
                    }
                ],
                "uncleHeaders" : [
                ]
            },
            {
                "blockHeader" : {
                    "bloom" : "0x00000000000000000000000000000000000000000000000000000000000000000000000000000000000000000000000000000000000000000000000000000000000000000000000000000000000000000000000000000000000000000000000000000000000000000000000000000000000000000000000000000000000000000000000000000000000000000000000000000000000000000000000000000000000000000000000000000000000000000000000000000000000000000000000000000000000000000000000000000000000000000000000000000000000000000000000000000000000000000000000000000000000000000000000000000000",
                    "coinbase" : "0xd4ad13effbb688e77930431a24fd296b71d6c1c9",
                    "difficulty" : "0x020000",
                    "extraData" : "",
                    "gasLimit" : "0x301fd2",
                    "gasUsed" : "0x5208",
                    "genesisTime" : "0x00",
                    "hardforkVersion" : "0x00",
                    "hash" : "0xf6e42e71703bb27a7d57fb6fe9811b36a71ca49111d21f0679eb906743e6f7c8",
                    "number" : "0x04",
                    "parentHash" : "0x4143b77fa313517b738e1c04475d542f2684d2b0f2b6a8bc6f600557222de321",
                    "r" : "0xc856e82985d93f96af9406619cf12180aeba56a2b6fc7da857a128407fa403d8",
                    "receiptTrie" : "0x056b23fbba480696b65fe5a59b8f2148a1299103c4f57df839233af2cf4ca2d2",
                    "runningVersion" : "0x00",
                    "s" : "0x568667279efa1aafebb05c0bc9007a2d2e8678d2cb68ad1db00a50a4cdddc312",
                    "stateRoot" : "0x596f54ae48a8ddb1cb9a4ce9b7dc892141f8e6a1090a0c8a405ac54226ede71c",
                    "timestamp" : "0x5a37672e",
                    "transactionsTrie" : "0x43c0b898ea93246c6f00333bf6a14de6b819c74d039d2cdf382ef1b7e895447c",
                    "uncleHash" : "0x1dcc4de8dec75d7aab85b567b6ccd41ad312451b948a7413f0a142fd40d49347",
                    "v" : "0x1b"
                },
                "blocknumber" : "4",
                "chainname" : "B",
                "rlp" : "0xf9027cf90215a04143b77fa313517b738e1c04475d542f2684d2b0f2b6a8bc6f600557222de321a01dcc4de8dec75d7aab85b567b6ccd41ad312451b948a7413f0a142fd40d4934794d4ad13effbb688e77930431a24fd296b71d6c1c9a0596f54ae48a8ddb1cb9a4ce9b7dc892141f8e6a1090a0c8a405ac54226ede71ca043c0b898ea93246c6f00333bf6a14de6b819c74d039d2cdf382ef1b7e895447ca0056b23fbba480696b65fe5a59b8f2148a1299103c4f57df839233af2cf4ca2d2b9010000000000000000000000000000000000000000000000000000000000000000000000000000000000000000000000000000000000000000000000000000000000000000000000000000000000000000000000000000000000000000000000000000000000000000000000000000000000000000000000000000000000000000000000000000000000000000000000000000000000000000000000000000000000000000000000000000000000000000000000000000000000000000000000000000000000000000000000000000000000000000000000000000000000000000000000000000000000000000000000000000000000000000000000000000000000830200000483301fd2825208845a37672e808080801ba0c856e82985d93f96af9406619cf12180aeba56a2b6fc7da857a128407fa403d8a0568667279efa1aafebb05c0bc9007a2d2e8678d2cb68ad1db00a50a4cdddc312f861f85f040182795394095e7baea6a6c7c4c2dfeb977efac326af552d8764801ba082a2dec18c512127304e5a7d1f5b3e513c26b43d85a095a6f448afdbe89431afa020ae86c5ade7d19c7f5110f4c3cf7b4cae94f1c774c66ac4252501e90d84c1cac0",
                "transactions" : [
                    {
                        "data" : "",
                        "gasLimit" : "0x7953",
                        "gasPrice" : "0x01",
                        "nonce" : "0x04",
                        "r" : "0x82a2dec18c512127304e5a7d1f5b3e513c26b43d85a095a6f448afdbe89431af",
                        "s" : "0x20ae86c5ade7d19c7f5110f4c3cf7b4cae94f1c774c66ac4252501e90d84c1ca",
                        "to" : "0x095e7baea6a6c7c4c2dfeb977efac326af552d87",
                        "v" : "0x1b",
                        "value" : "0x64"
                    }
                ],
                "uncleHeaders" : [
                ]
            }
        ],
        "genesisBlockHeader" : {
            "bloom" : "0x00000000000000000000000000000000000000000000000000000000000000000000000000000000000000000000000000000000000000000000000000000000000000000000000000000000000000000000000000000000000000000000000000000000000000000000000000000000000000000000000000000000000000000000000000000000000000000000000000000000000000000000000000000000000000000000000000000000000000000000000000000000000000000000000000000000000000000000000000000000000000000000000000000000000000000000000000000000000000000000000000000000000000000000000000000000",
            "coinbase" : "0x8888f1f195afa192cfee860698584c030f4c9db1",
            "difficulty" : "0x020000",
            "extraData" : "0x42",
            "gasLimit" : "0x2fefd8",
            "gasUsed" : "0x00",
            "genesisTime" : "0x00",
            "hardforkVersion" : "0x00",
            "hash" : "0x408968efa704f9c2a7ba35db351ee545e3dab0a1b7856a7681d1d9149c9190a2",
            "number" : "0x00",
            "parentHash" : "0x0000000000000000000000000000000000000000000000000000000000000000",
            "r" : "0x00",
            "receiptTrie" : "0x56e81f171bcc55a6ff8345e692c0f86e5b48e01b996cadc001622fb5e363b421",
            "runningVersion" : "0x00",
            "s" : "0x00",
            "stateRoot" : "0x7dba07d6b448a186e9612e5f737d1c909dce473e53199901a302c00646d523c1",
            "timestamp" : "0x54c98c81",
            "transactionsTrie" : "0x56e81f171bcc55a6ff8345e692c0f86e5b48e01b996cadc001622fb5e363b421",
            "uncleHash" : "0x1dcc4de8dec75d7aab85b567b6ccd41ad312451b948a7413f0a142fd40d49347",
            "v" : "0x1b"
        },
        "genesisRLP" : "0xf901d8f901d3a00000000000000000000000000000000000000000000000000000000000000000a01dcc4de8dec75d7aab85b567b6ccd41ad312451b948a7413f0a142fd40d49347948888f1f195afa192cfee860698584c030f4c9db1a07dba07d6b448a186e9612e5f737d1c909dce473e53199901a302c00646d523c1a056e81f171bcc55a6ff8345e692c0f86e5b48e01b996cadc001622fb5e363b421a056e81f171bcc55a6ff8345e692c0f86e5b48e01b996cadc001622fb5e363b421b90100000000000000000000000000000000000000000000000000000000000000000000000000000000000000000000000000000000000000000000000000000000000000000000000000000000000000000000000000000000000000000000000000000000000000000000000000000000000000000000000000000000000000000000000000000000000000000000000000000000000000000000000000000000000000000000000000000000000000000000000000000000000000000000000000000000000000000000000000000000000000000000000000000000000000000000000000000000000000000000000000000000000000000000000000000000008302000080832fefd8808454c98c81428080801b8080c0c0",
        "lastblockhash" : "0xf6e42e71703bb27a7d57fb6fe9811b36a71ca49111d21f0679eb906743e6f7c8",
        "network" : "Frontier",
        "postState" : {
            "0x095e7baea6a6c7c4c2dfeb977efac326af552d87" : {
                "balance" : "0x012c",
                "code" : "",
                "nonce" : "0x00",
                "storage" : {
                }
            },
            "0x2ecffd9dc5561bbdf23929a250bb99c758d64dbb" : {
                "balance" : "0x4563918244f45208",
                "code" : "",
                "nonce" : "0x00",
                "storage" : {
                }
            },
            "0x5c30b1688bf9b515f268debf6e286c36dd1e1af3" : {
                "balance" : "0x4563918244f45208",
                "code" : "",
                "nonce" : "0x00",
                "storage" : {
                }
            },
            "0xa94f5374fce5edbc8e2a8697c15331677e6ebf0b" : {
                "balance" : "0x09184e710214",
                "code" : "",
                "nonce" : "0x05",
                "storage" : {
                }
            },
            "0xd4ad13effbb688e77930431a24fd296b71d6c1c9" : {
                "balance" : "0x4563918244f45208",
                "code" : "",
                "nonce" : "0x00",
                "storage" : {
                }
            },
            "0xec0e71ad0a90ffe1909d27dac207f7680abba42d" : {
                "balance" : "0x78",
                "code" : "",
                "nonce" : "0x00",
                "storage" : {
                }
            },
            "0xfc9f39081b56b1612acbbf0bdfb350b53fae11d7" : {
                "balance" : "0x4563918244f4a630",
                "code" : "",
                "nonce" : "0x00",
                "storage" : {
                }
            }
        },
        "pre" : {
            "0xa94f5374fce5edbc8e2a8697c15331677e6ebf0b" : {
                "balance" : "0x09184e72a000",
                "code" : "",
                "nonce" : "0x00",
                "storage" : {
                }
            }
        }
    }
}