{
    "BLOCKHASH_Bounds_Frontier" : {
        "_info" : {
            "comment" : "",
            "filledwith" : "cpp-1.3.0+commit.6ad46646.Windows.msvc",
            "lllcversion" : "Error getting LLLC Version",
            "source" : "src\\BlockchainTestsFiller\\bcStateTests\\BLOCKHASH_BoundsFiller.json",
            "sourceHash" : "5273e6f818fa78222341f3a3244c207baf22d8032a744292c56a1c721b21ff4f"
        },
        "blocks" : [
            {
                "blockHeader" : {
                    "bloom" : "0x00000000000000000000000000000000000000000000000000000000000000000000000000000000000000000000000000000000000000000000000000000000000000000000000000000000000000000000000000000000000000000000000000000000000000000000000000000000000000000000000000000000000000000000000000000000000000000000000000000000000000000000000000000000000000000000000000000000000000000000000000000000000000000000000000000000000000000000000000000000000000000000000000000000000000000000000000000000000000000000000000000000000000000000000000000000",
                    "coinbase" : "0x2ecffd9dc5561bbdf23929a250bb99c758d64dbb",
                    "difficulty" : "0x020000",
                    "extraData" : "",
                    "gasLimit" : "0x7fffffffffffffff",
                    "gasUsed" : "0x11de38",
                    "genesisTime" : "0x00",
                    "hardforkVersion" : "0x00",
                    "hash" : "0x5e2e8b11e2c5e27db969477217fe99f67f8964538fe2022a8e753771652cfcbe",
                    "number" : "0x01",
                    "parentHash" : "0xff289d68c233c36e12f0495b8242c5a6818928162df632a771cbd42153802587",
                    "r" : "0x50779818afb1df072f5ad552cf054632d23159ad5a37604f2a5242a73367525c",
                    "receiptTrie" : "0xe75cdb051e5ae23f7c78f9bb453a9990b39aba74ea2c26c25761de456eddd528",
                    "runningVersion" : "0x00",
                    "s" : "0x25b5e3f289b1d8c1eb5efd5658327ca3294c3f076824dd3644f83552f286db30",
                    "stateRoot" : "0x553507d70d40a957e3652e13f31ff3db62444dcdda0e106578af3084068df033",
                    "timestamp" : "0x5a376727",
                    "transactionsTrie" : "0xee43fc418be6b43209e9692e06c96b18ce47ed4e0be964cc1b2128567debc2dd",
                    "uncleHash" : "0x1dcc4de8dec75d7aab85b567b6ccd41ad312451b948a7413f0a142fd40d49347",
                    "v" : "0x1c"
                },
                "rlp" : "0xf90349f9021ba0ff289d68c233c36e12f0495b8242c5a6818928162df632a771cbd42153802587a01dcc4de8dec75d7aab85b567b6ccd41ad312451b948a7413f0a142fd40d49347942ecffd9dc5561bbdf23929a250bb99c758d64dbba0553507d70d40a957e3652e13f31ff3db62444dcdda0e106578af3084068df033a0ee43fc418be6b43209e9692e06c96b18ce47ed4e0be964cc1b2128567debc2dda0e75cdb051e5ae23f7c78f9bb453a9990b39aba74ea2c26c25761de456eddd528b90100000000000000000000000000000000000000000000000000000000000000000000000000000000000000000000000000000000000000000000000000000000000000000000000000000000000000000000000000000000000000000000000000000000000000000000000000000000000000000000000000000000000000000000000000000000000000000000000000000000000000000000000000000000000000000000000000000000000000000000000000000000000000000000000000000000000000000000000000000000000000000000000000000000000000000000000000000000000000000000000000000000000000000000000000000000008302000001887fffffffffffffff8311de38845a376727808080801ca050779818afb1df072f5ad552cf054632d23159ad5a37604f2a5242a73367525ca025b5e3f289b1d8c1eb5efd5658327ca3294c3f076824dd3644f83552f286db30f90127f8608001830249f094100000000000000000000000000000000000000001801ba0a8d69db5cc7b988975447a2e77fa471a04e8738915df60767b3104a95bf95c1aa030d6d7f9cd259c5937c46412312a382eabaf62794a7f6d6183891f864057feecf8608001830f424094100000000000000000000000000000000000000101801ba03e25058b9043ef9130f5423b04831a80989f086dacf5ff8468da47b0790086d7a04115beb874eee5f516fd60c91471249bde75186e260632ebf3567b7f05b3ea40f8618001840ee6b28094100000000000000000000000000000000000000201801ca0b4d82d934cb8d0b959b87a51e42cd51d560d24a71047b2127e78830404837662a00e7c42d2e4ce666564a232a4705cf6e43a2bcf29ecbd7db39a21484d01383e75c0",
                "transactions" : [
                    {
                        "data" : "",
                        "gasLimit" : "0x0249f0",
                        "gasPrice" : "0x01",
                        "nonce" : "0x00",
                        "r" : "0xa8d69db5cc7b988975447a2e77fa471a04e8738915df60767b3104a95bf95c1a",
                        "s" : "0x30d6d7f9cd259c5937c46412312a382eabaf62794a7f6d6183891f864057feec",
                        "to" : "0x1000000000000000000000000000000000000000",
                        "v" : "0x1b",
                        "value" : "0x01"
                    },
                    {
                        "data" : "",
                        "gasLimit" : "0x0f4240",
                        "gasPrice" : "0x01",
                        "nonce" : "0x00",
                        "r" : "0x3e25058b9043ef9130f5423b04831a80989f086dacf5ff8468da47b0790086d7",
                        "s" : "0x4115beb874eee5f516fd60c91471249bde75186e260632ebf3567b7f05b3ea40",
                        "to" : "0x1000000000000000000000000000000000000001",
                        "v" : "0x1b",
                        "value" : "0x01"
                    },
                    {
                        "data" : "",
                        "gasLimit" : "0x0ee6b280",
                        "gasPrice" : "0x01",
                        "nonce" : "0x00",
                        "r" : "0xb4d82d934cb8d0b959b87a51e42cd51d560d24a71047b2127e78830404837662",
                        "s" : "0x0e7c42d2e4ce666564a232a4705cf6e43a2bcf29ecbd7db39a21484d01383e75",
                        "to" : "0x1000000000000000000000000000000000000002",
                        "v" : "0x1c",
                        "value" : "0x01"
                    }
                ],
                "uncleHeaders" : [
                ]
            }
        ],
        "genesisBlockHeader" : {
            "bloom" : "0x00000000000000000000000000000000000000000000000000000000000000000000000000000000000000000000000000000000000000000000000000000000000000000000000000000000000000000000000000000000000000000000000000000000000000000000000000000000000000000000000000000000000000000000000000000000000000000000000000000000000000000000000000000000000000000000000000000000000000000000000000000000000000000000000000000000000000000000000000000000000000000000000000000000000000000000000000000000000000000000000000000000000000000000000000000000",
            "coinbase" : "0x2adc25665018aa1fe0e6bc666dac8fc2697ff9ba",
            "difficulty" : "0x020000",
            "extraData" : "0x42",
            "gasLimit" : "0x7fffffffffffffff",
            "gasUsed" : "0x00",
            "genesisTime" : "0x00",
            "hardforkVersion" : "0x00",
            "hash" : "0xff289d68c233c36e12f0495b8242c5a6818928162df632a771cbd42153802587",
            "number" : "0x00",
            "parentHash" : "0x0000000000000000000000000000000000000000000000000000000000000000",
            "r" : "0x00",
            "receiptTrie" : "0x56e81f171bcc55a6ff8345e692c0f86e5b48e01b996cadc001622fb5e363b421",
            "runningVersion" : "0x00",
            "s" : "0x00",
            "stateRoot" : "0xb8973de1e49b2791294aef552ead7d9fca219707572a9ce18a2a5b98f25bce4a",
            "timestamp" : "0x03b6",
            "transactionsTrie" : "0x56e81f171bcc55a6ff8345e692c0f86e5b48e01b996cadc001622fb5e363b421",
            "uncleHash" : "0x1dcc4de8dec75d7aab85b567b6ccd41ad312451b948a7413f0a142fd40d49347",
            "v" : "0x1b"
        },
        "genesisRLP" : "0xf901dbf901d6a00000000000000000000000000000000000000000000000000000000000000000a01dcc4de8dec75d7aab85b567b6ccd41ad312451b948a7413f0a142fd40d49347942adc25665018aa1fe0e6bc666dac8fc2697ff9baa0b8973de1e49b2791294aef552ead7d9fca219707572a9ce18a2a5b98f25bce4aa056e81f171bcc55a6ff8345e692c0f86e5b48e01b996cadc001622fb5e363b421a056e81f171bcc55a6ff8345e692c0f86e5b48e01b996cadc001622fb5e363b421b90100000000000000000000000000000000000000000000000000000000000000000000000000000000000000000000000000000000000000000000000000000000000000000000000000000000000000000000000000000000000000000000000000000000000000000000000000000000000000000000000000000000000000000000000000000000000000000000000000000000000000000000000000000000000000000000000000000000000000000000000000000000000000000000000000000000000000000000000000000000000000000000000000000000000000000000000000000000000000000000000000000000000000000000000000000000008302000080887fffffffffffffff808203b6428080801b8080c0c0",
        "lastblockhash" : "0x5e2e8b11e2c5e27db969477217fe99f67f8964538fe2022a8e753771652cfcbe",
        "network" : "Frontier",
        "postState" : {
            "0x1000000000000000000000000000000000000000" : {
                "balance" : "0x00",
                "code" : "0x60004060005563ffffffff4060015567ffffffffffffffff406002556fffffffffffffffffffffffffffffffff406003557fffffffffffffffffffffffffffffffffffffffffffffffffffffffffffffffff40600455",
                "nonce" : "0x00",
                "storage" : {
                }
            },
            "0x1000000000000000000000000000000000000001" : {
                "balance" : "0x00",
                "code" : "0x60004060005563ffffffff4060015567ffffffffffffffff406002556fffffffffffffffffffffffffffffffff406003557fffffffffffffffffffffffffffffffffffffffffffffffffffffffffffffffff40600455",
                "nonce" : "0x00",
                "storage" : {
                }
            },
            "0x1000000000000000000000000000000000000002" : {
                "balance" : "0x01",
                "code" : "",
                "nonce" : "0x00",
                "storage" : {
                }
            },
            "0x118797674cc60c07ad39a824cecc53c29d803feb" : {
                "balance" : "0x7fffffffffffadf6",
                "code" : "",
                "nonce" : "0x01",
                "storage" : {
                }
            },
            "0x2ecffd9dc5561bbdf23929a250bb99c758d64dbb" : {
                "balance" : "0x456391824505de38",
                "code" : "",
                "nonce" : "0x00",
                "storage" : {
                }
            },
            "0x840c2083a4726e89c45df3387770b8fb55677229" : {
                "balance" : "0x7ffffffffff0bdbf",
                "code" : "",
                "nonce" : "0x01",
                "storage" : {
                }
            },
            "0xa94f5374fce5edbc8e2a8697c15331677e6ebf0b" : {
                "balance" : "0x7ffffffffffdb60f",
                "code" : "",
                "nonce" : "0x01",
                "storage" : {
                }
            }
        },
        "pre" : {
            "0x1000000000000000000000000000000000000000" : {
                "balance" : "0x00",
                "code" : "0x60004060005563ffffffff4060015567ffffffffffffffff406002556fffffffffffffffffffffffffffffffff406003557fffffffffffffffffffffffffffffffffffffffffffffffffffffffffffffffff40600455",
                "nonce" : "0x00",
                "storage" : {
                }
            },
            "0x1000000000000000000000000000000000000001" : {
                "balance" : "0x00",
                "code" : "0x60004060005563ffffffff4060015567ffffffffffffffff406002556fffffffffffffffffffffffffffffffff406003557fffffffffffffffffffffffffffffffffffffffffffffffffffffffffffffffff40600455",
                "nonce" : "0x00",
                "storage" : {
                }
            },
            "0x118797674cc60c07ad39a824cecc53c29d803feb" : {
                "balance" : "0x7fffffffffffffff",
                "code" : "",
                "nonce" : "0x00",
                "storage" : {
                }
            },
            "0x840c2083a4726e89c45df3387770b8fb55677229" : {
                "balance" : "0x7fffffffffffffff",
                "code" : "",
                "nonce" : "0x00",
                "storage" : {
                }
            },
            "0xa94f5374fce5edbc8e2a8697c15331677e6ebf0b" : {
                "balance" : "0x7fffffffffffffff",
                "code" : "",
                "nonce" : "0x00",
                "storage" : {
                }
            }
        }
    }
}